{
  "contractName": "DAIMock",
  "abi": [
    {
      "inputs": [
        {
          "internalType": "uint256",
          "name": "initialSupply",
          "type": "uint256"
        }
      ],
      "stateMutability": "nonpayable",
      "type": "constructor"
    },
    {
      "anonymous": false,
      "inputs": [
        {
          "indexed": true,
          "internalType": "address",
          "name": "owner",
          "type": "address"
        },
        {
          "indexed": true,
          "internalType": "address",
          "name": "spender",
          "type": "address"
        },
        {
          "indexed": false,
          "internalType": "uint256",
          "name": "value",
          "type": "uint256"
        }
      ],
      "name": "Approval",
      "type": "event"
    },
    {
      "anonymous": false,
      "inputs": [
        {
          "indexed": true,
          "internalType": "address",
          "name": "from",
          "type": "address"
        },
        {
          "indexed": true,
          "internalType": "address",
          "name": "to",
          "type": "address"
        },
        {
          "indexed": false,
          "internalType": "uint256",
          "name": "value",
          "type": "uint256"
        }
      ],
      "name": "Transfer",
      "type": "event"
    },
    {
      "inputs": [],
      "name": "DOMAIN_SEPARATOR",
      "outputs": [
        {
          "internalType": "bytes32",
          "name": "",
          "type": "bytes32"
        }
      ],
      "stateMutability": "view",
      "type": "function",
      "constant": true
    },
    {
      "inputs": [
        {
          "internalType": "address",
          "name": "owner",
          "type": "address"
        },
        {
          "internalType": "address",
          "name": "spender",
          "type": "address"
        }
      ],
      "name": "allowance",
      "outputs": [
        {
          "internalType": "uint256",
          "name": "",
          "type": "uint256"
        }
      ],
      "stateMutability": "view",
      "type": "function",
      "constant": true
    },
    {
      "inputs": [
        {
          "internalType": "address",
          "name": "spender",
          "type": "address"
        },
        {
          "internalType": "uint256",
          "name": "amount",
          "type": "uint256"
        }
      ],
      "name": "approve",
      "outputs": [
        {
          "internalType": "bool",
          "name": "",
          "type": "bool"
        }
      ],
      "stateMutability": "nonpayable",
      "type": "function"
    },
    {
      "inputs": [
        {
          "internalType": "address",
          "name": "account",
          "type": "address"
        }
      ],
      "name": "balanceOf",
      "outputs": [
        {
          "internalType": "uint256",
          "name": "",
          "type": "uint256"
        }
      ],
      "stateMutability": "view",
      "type": "function",
      "constant": true
    },
    {
      "inputs": [],
      "name": "decimals",
      "outputs": [
        {
          "internalType": "uint8",
          "name": "",
          "type": "uint8"
        }
      ],
      "stateMutability": "view",
      "type": "function",
      "constant": true
    },
    {
      "inputs": [
        {
          "internalType": "address",
          "name": "spender",
          "type": "address"
        },
        {
          "internalType": "uint256",
          "name": "subtractedValue",
          "type": "uint256"
        }
      ],
      "name": "decreaseAllowance",
      "outputs": [
        {
          "internalType": "bool",
          "name": "",
          "type": "bool"
        }
      ],
      "stateMutability": "nonpayable",
      "type": "function"
    },
    {
      "inputs": [
        {
          "internalType": "address",
          "name": "spender",
          "type": "address"
        },
        {
          "internalType": "uint256",
          "name": "addedValue",
          "type": "uint256"
        }
      ],
      "name": "increaseAllowance",
      "outputs": [
        {
          "internalType": "bool",
          "name": "",
          "type": "bool"
        }
      ],
      "stateMutability": "nonpayable",
      "type": "function"
    },
    {
      "inputs": [],
      "name": "name",
      "outputs": [
        {
          "internalType": "string",
          "name": "",
          "type": "string"
        }
      ],
      "stateMutability": "view",
      "type": "function",
      "constant": true
    },
    {
      "inputs": [
        {
          "internalType": "address",
          "name": "owner",
          "type": "address"
        }
      ],
      "name": "nonces",
      "outputs": [
        {
          "internalType": "uint256",
          "name": "",
          "type": "uint256"
        }
      ],
      "stateMutability": "view",
      "type": "function",
      "constant": true
    },
    {
      "inputs": [
        {
          "internalType": "address",
          "name": "owner",
          "type": "address"
        },
        {
          "internalType": "address",
          "name": "spender",
          "type": "address"
        },
        {
          "internalType": "uint256",
          "name": "value",
          "type": "uint256"
        },
        {
          "internalType": "uint256",
          "name": "deadline",
          "type": "uint256"
        },
        {
          "internalType": "uint8",
          "name": "v",
          "type": "uint8"
        },
        {
          "internalType": "bytes32",
          "name": "r",
          "type": "bytes32"
        },
        {
          "internalType": "bytes32",
          "name": "s",
          "type": "bytes32"
        }
      ],
      "name": "permit",
      "outputs": [],
      "stateMutability": "nonpayable",
      "type": "function"
    },
    {
      "inputs": [],
      "name": "symbol",
      "outputs": [
        {
          "internalType": "string",
          "name": "",
          "type": "string"
        }
      ],
      "stateMutability": "view",
      "type": "function",
      "constant": true
    },
    {
      "inputs": [],
      "name": "totalSupply",
      "outputs": [
        {
          "internalType": "uint256",
          "name": "",
          "type": "uint256"
        }
      ],
      "stateMutability": "view",
      "type": "function",
      "constant": true
    },
    {
      "inputs": [
        {
          "internalType": "address",
          "name": "recipient",
          "type": "address"
        },
        {
          "internalType": "uint256",
          "name": "amount",
          "type": "uint256"
        }
      ],
      "name": "transfer",
      "outputs": [
        {
          "internalType": "bool",
          "name": "",
          "type": "bool"
        }
      ],
      "stateMutability": "nonpayable",
      "type": "function"
    },
    {
      "inputs": [
        {
          "internalType": "address",
          "name": "sender",
          "type": "address"
        },
        {
          "internalType": "address",
          "name": "recipient",
          "type": "address"
        },
        {
          "internalType": "uint256",
          "name": "amount",
          "type": "uint256"
        }
      ],
      "name": "transferFrom",
      "outputs": [
        {
          "internalType": "bool",
          "name": "",
          "type": "bool"
        }
      ],
      "stateMutability": "nonpayable",
      "type": "function"
    },
    {
      "inputs": [
        {
          "internalType": "address",
          "name": "to",
          "type": "address"
        },
        {
          "internalType": "uint256",
          "name": "amount",
          "type": "uint256"
        }
      ],
      "name": "mint",
      "outputs": [],
      "stateMutability": "nonpayable",
      "type": "function"
    },
    {
      "inputs": [
        {
          "internalType": "address",
          "name": "from",
          "type": "address"
        },
        {
          "internalType": "uint256",
          "name": "amount",
          "type": "uint256"
        }
      ],
      "name": "burn",
      "outputs": [],
      "stateMutability": "nonpayable",
      "type": "function"
    }
  ],
  "bytecode": "0x6101406040527f6e71edae12b1b97f4d1f60370fef10105fa2faae0126114a169c64845d6126c9610120908152503480156200003a57600080fd5b5060405162002b7938038062002b79833981810160405281019062000060919062000471565b6040518060400160405280600881526020017f4441492d4d4f434b000000000000000000000000000000000000000000000000815250806040518060400160405280600181526020017f31000000000000000000000000000000000000000000000000000000000000008152506040518060400160405280600881526020017f4441492d4d4f434b0000000000000000000000000000000000000000000000008152506040518060400160405280600381526020017f4441490000000000000000000000000000000000000000000000000000000000815250816003908051906020019062000151929190620003aa565b5080600490805190602001906200016a929190620003aa565b50505060008280519060200120905060008280519060200120905060007f8b73c3c69bb8fe3d512ecc4cf759cc79239f7b179b0ffacaa9a75d522b39400f90508260c081815250508160e081815250504660a08181525050620001d58184846200020460201b60201c565b60808181525050806101008181525050505050505050620001fd33826200024060201b60201c565b5062000720565b6000838383463060405160200162000221959493929190620004f7565b6040516020818303038152906040528051906020012090509392505050565b600073ffffffffffffffffffffffffffffffffffffffff168273ffffffffffffffffffffffffffffffffffffffff161415620002b3576040517f08c379a0000000000000000000000000000000000000000000000000000000008152600401620002aa9062000554565b60405180910390fd5b620002c760008383620003a560201b60201c565b8060026000828254620002db9190620005a4565b92505081905550806000808473ffffffffffffffffffffffffffffffffffffffff1673ffffffffffffffffffffffffffffffffffffffff1681526020019081526020016000206000828254620003329190620005a4565b925050819055508173ffffffffffffffffffffffffffffffffffffffff16600073ffffffffffffffffffffffffffffffffffffffff167fddf252ad1be2c89b69c2b068fc378daa952ba7f163c4a11628f55a4df523b3ef8360405162000399919062000576565b60405180910390a35050565b505050565b828054620003b89062000649565b90600052602060002090601f016020900481019282620003dc576000855562000428565b82601f10620003f757805160ff191683800117855562000428565b8280016001018555821562000428579182015b82811115620004275782518255916020019190600101906200040a565b5b5090506200043791906200043b565b5090565b5b80821115620004565760008160009055506001016200043c565b5090565b6000815190506200046b8162000706565b92915050565b6000602082840312156200048457600080fd5b600062000494848285016200045a565b91505092915050565b620004a88162000601565b82525050565b620004b98162000615565b82525050565b6000620004ce601f8362000593565b9150620004db82620006dd565b602082019050919050565b620004f1816200063f565b82525050565b600060a0820190506200050e6000830188620004ae565b6200051d6020830187620004ae565b6200052c6040830186620004ae565b6200053b6060830185620004e6565b6200054a60808301846200049d565b9695505050505050565b600060208201905081810360008301526200056f81620004bf565b9050919050565b60006020820190506200058d6000830184620004e6565b92915050565b600082825260208201905092915050565b6000620005b1826200063f565b9150620005be836200063f565b9250827fffffffffffffffffffffffffffffffffffffffffffffffffffffffffffffffff03821115620005f657620005f56200067f565b5b828201905092915050565b60006200060e826200061f565b9050919050565b6000819050919050565b600073ffffffffffffffffffffffffffffffffffffffff82169050919050565b6000819050919050565b600060028204905060018216806200066257607f821691505b60208210811415620006795762000678620006ae565b5b50919050565b7f4e487b7100000000000000000000000000000000000000000000000000000000600052601160045260246000fd5b7f4e487b7100000000000000000000000000000000000000000000000000000000600052602260045260246000fd5b7f45524332303a206d696e7420746f20746865207a65726f206164647265737300600082015250565b62000711816200063f565b81146200071d57600080fd5b50565b60805160a05160c05160e051610100516101205161240962000770600039600061088d01526000610f3d01526000610f7f01526000610f5e01526000610eea01526000610f1201526124096000f3fe608060405234801561001057600080fd5b50600436106101005760003560e01c806370a0823111610097578063a457c2d711610066578063a457c2d7146102c3578063a9059cbb146102f3578063d505accf14610323578063dd62ed3e1461033f57610100565b806370a08231146102295780637ecebe001461025957806395d89b41146102895780639dc29fac146102a757610100565b8063313ce567116100d3578063313ce567146101a15780633644e515146101bf57806339509351146101dd57806340c10f191461020d57610100565b806306fdde0314610105578063095ea7b31461012357806318160ddd1461015357806323b872dd14610171575b600080fd5b61010d61036f565b60405161011a9190611b1f565b60405180910390f35b61013d600480360381019061013891906116b2565b610401565b60405161014a91906119f0565b60405180910390f35b61015b61041f565b6040516101689190611d21565b60405180910390f35b61018b600480360381019061018691906115c5565b610429565b60405161019891906119f0565b60405180910390f35b6101a961052a565b6040516101b69190611d3c565b60405180910390f35b6101c7610533565b6040516101d49190611a0b565b60405180910390f35b6101f760048036038101906101f291906116b2565b610542565b60405161020491906119f0565b60405180910390f35b610227600480360381019061022291906116b2565b6105ee565b005b610243600480360381019061023e9190611560565b6105fc565b6040516102509190611d21565b60405180910390f35b610273600480360381019061026e9190611560565b610644565b6040516102809190611d21565b60405180910390f35b610291610694565b60405161029e9190611b1f565b60405180910390f35b6102c160048036038101906102bc91906116b2565b610726565b005b6102dd60048036038101906102d891906116b2565b610734565b6040516102ea91906119f0565b60405180910390f35b61030d600480360381019061030891906116b2565b610828565b60405161031a91906119f0565b60405180910390f35b61033d60048036038101906103389190611614565b610846565b005b61035960048036038101906103549190611589565b610a0d565b6040516103669190611d21565b60405180910390f35b60606003805461037e90611e9a565b80601f01602080910402602001604051908101604052809291908181526020018280546103aa90611e9a565b80156103f75780601f106103cc576101008083540402835291602001916103f7565b820191906000526020600020905b8154815290600101906020018083116103da57829003601f168201915b5050505050905090565b600061041561040e610a94565b8484610a9c565b6001905092915050565b6000600254905090565b6000610436848484610c67565b6000600160008673ffffffffffffffffffffffffffffffffffffffff1673ffffffffffffffffffffffffffffffffffffffff1681526020019081526020016000206000610481610a94565b73ffffffffffffffffffffffffffffffffffffffff1673ffffffffffffffffffffffffffffffffffffffff16815260200190815260200160002054905082811015610501576040517f08c379a00000000000000000000000000000000000000000000000000000000081526004016104f890611c61565b60405180910390fd5b61051e8561050d610a94565b85846105199190611dd4565b610a9c565b60019150509392505050565b60006012905090565b600061053d610ee6565b905090565b60006105e461054f610a94565b84846001600061055d610a94565b73ffffffffffffffffffffffffffffffffffffffff1673ffffffffffffffffffffffffffffffffffffffff16815260200190815260200160002060008873ffffffffffffffffffffffffffffffffffffffff1673ffffffffffffffffffffffffffffffffffffffff168152602001908152602001600020546105df9190611d7e565b610a9c565b6001905092915050565b6105f88282610fa9565b5050565b60008060008373ffffffffffffffffffffffffffffffffffffffff1673ffffffffffffffffffffffffffffffffffffffff168152602001908152602001600020549050919050565b600061068d600560008473ffffffffffffffffffffffffffffffffffffffff1673ffffffffffffffffffffffffffffffffffffffff1681526020019081526020016000206110fd565b9050919050565b6060600480546106a390611e9a565b80601f01602080910402602001604051908101604052809291908181526020018280546106cf90611e9a565b801561071c5780601f106106f15761010080835404028352916020019161071c565b820191906000526020600020905b8154815290600101906020018083116106ff57829003601f168201915b5050505050905090565b610730828261110b565b5050565b60008060016000610743610a94565b73ffffffffffffffffffffffffffffffffffffffff1673ffffffffffffffffffffffffffffffffffffffff16815260200190815260200160002060008573ffffffffffffffffffffffffffffffffffffffff1673ffffffffffffffffffffffffffffffffffffffff16815260200190815260200160002054905082811015610800576040517f08c379a00000000000000000000000000000000000000000000000000000000081526004016107f790611ce1565b60405180910390fd5b61081d61080b610a94565b8585846108189190611dd4565b610a9c565b600191505092915050565b600061083c610835610a94565b8484610c67565b6001905092915050565b83421115610889576040517f08c379a000000000000000000000000000000000000000000000000000000000815260040161088090611bc1565b60405180910390fd5b60007f00000000000000000000000000000000000000000000000000000000000000008888886108f6600560008e73ffffffffffffffffffffffffffffffffffffffff1673ffffffffffffffffffffffffffffffffffffffff1681526020019081526020016000206110fd565b8960405160200161090c96959493929190611a26565b604051602081830303815290604052805190602001209050600061092f826112df565b9050600061093f828787876112f9565b90508973ffffffffffffffffffffffffffffffffffffffff168173ffffffffffffffffffffffffffffffffffffffff16146109af576040517f08c379a00000000000000000000000000000000000000000000000000000000081526004016109a690611c41565b60405180910390fd5b6109f6600560008c73ffffffffffffffffffffffffffffffffffffffff1673ffffffffffffffffffffffffffffffffffffffff168152602001908152602001600020611484565b610a018a8a8a610a9c565b50505050505050505050565b6000600160008473ffffffffffffffffffffffffffffffffffffffff1673ffffffffffffffffffffffffffffffffffffffff16815260200190815260200160002060008373ffffffffffffffffffffffffffffffffffffffff1673ffffffffffffffffffffffffffffffffffffffff16815260200190815260200160002054905092915050565b600033905090565b600073ffffffffffffffffffffffffffffffffffffffff168373ffffffffffffffffffffffffffffffffffffffff161415610b0c576040517f08c379a0000000000000000000000000000000000000000000000000000000008152600401610b0390611cc1565b60405180910390fd5b600073ffffffffffffffffffffffffffffffffffffffff168273ffffffffffffffffffffffffffffffffffffffff161415610b7c576040517f08c379a0000000000000000000000000000000000000000000000000000000008152600401610b7390611ba1565b60405180910390fd5b80600160008573ffffffffffffffffffffffffffffffffffffffff1673ffffffffffffffffffffffffffffffffffffffff16815260200190815260200160002060008473ffffffffffffffffffffffffffffffffffffffff1673ffffffffffffffffffffffffffffffffffffffff168152602001908152602001600020819055508173ffffffffffffffffffffffffffffffffffffffff168373ffffffffffffffffffffffffffffffffffffffff167f8c5be1e5ebec7d5bd14f71427d1e84f3dd0314c0f7b2291e5b200ac8c7c3b92583604051610c5a9190611d21565b60405180910390a3505050565b600073ffffffffffffffffffffffffffffffffffffffff168373ffffffffffffffffffffffffffffffffffffffff161415610cd7576040517f08c379a0000000000000000000000000000000000000000000000000000000008152600401610cce90611ca1565b60405180910390fd5b600073ffffffffffffffffffffffffffffffffffffffff168273ffffffffffffffffffffffffffffffffffffffff161415610d47576040517f08c379a0000000000000000000000000000000000000000000000000000000008152600401610d3e90611b61565b60405180910390fd5b610d5283838361149a565b60008060008573ffffffffffffffffffffffffffffffffffffffff1673ffffffffffffffffffffffffffffffffffffffff16815260200190815260200160002054905081811015610dd8576040517f08c379a0000000000000000000000000000000000000000000000000000000008152600401610dcf90611be1565b60405180910390fd5b8181610de49190611dd4565b6000808673ffffffffffffffffffffffffffffffffffffffff1673ffffffffffffffffffffffffffffffffffffffff16815260200190815260200160002081905550816000808573ffffffffffffffffffffffffffffffffffffffff1673ffffffffffffffffffffffffffffffffffffffff1681526020019081526020016000206000828254610e749190611d7e565b925050819055508273ffffffffffffffffffffffffffffffffffffffff168473ffffffffffffffffffffffffffffffffffffffff167fddf252ad1be2c89b69c2b068fc378daa952ba7f163c4a11628f55a4df523b3ef84604051610ed89190611d21565b60405180910390a350505050565b60007f0000000000000000000000000000000000000000000000000000000000000000461415610f38577f00000000000000000000000000000000000000000000000000000000000000009050610fa6565b610fa37f00000000000000000000000000000000000000000000000000000000000000007f00000000000000000000000000000000000000000000000000000000000000007f000000000000000000000000000000000000000000000000000000000000000061149f565b90505b90565b600073ffffffffffffffffffffffffffffffffffffffff168273ffffffffffffffffffffffffffffffffffffffff161415611019576040517f08c379a000000000000000000000000000000000000000000000000000000000815260040161101090611d01565b60405180910390fd5b6110256000838361149a565b80600260008282546110379190611d7e565b92505081905550806000808473ffffffffffffffffffffffffffffffffffffffff1673ffffffffffffffffffffffffffffffffffffffff168152602001908152602001600020600082825461108c9190611d7e565b925050819055508173ffffffffffffffffffffffffffffffffffffffff16600073ffffffffffffffffffffffffffffffffffffffff167fddf252ad1be2c89b69c2b068fc378daa952ba7f163c4a11628f55a4df523b3ef836040516110f19190611d21565b60405180910390a35050565b600081600001549050919050565b600073ffffffffffffffffffffffffffffffffffffffff168273ffffffffffffffffffffffffffffffffffffffff16141561117b576040517f08c379a000000000000000000000000000000000000000000000000000000000815260040161117290611c81565b60405180910390fd5b6111878260008361149a565b60008060008473ffffffffffffffffffffffffffffffffffffffff1673ffffffffffffffffffffffffffffffffffffffff1681526020019081526020016000205490508181101561120d576040517f08c379a000000000000000000000000000000000000000000000000000000000815260040161120490611b81565b60405180910390fd5b81816112199190611dd4565b6000808573ffffffffffffffffffffffffffffffffffffffff1673ffffffffffffffffffffffffffffffffffffffff16815260200190815260200160002081905550816002600082825461126d9190611dd4565b92505081905550600073ffffffffffffffffffffffffffffffffffffffff168373ffffffffffffffffffffffffffffffffffffffff167fddf252ad1be2c89b69c2b068fc378daa952ba7f163c4a11628f55a4df523b3ef846040516112d29190611d21565b60405180910390a3505050565b60006112f26112ec610ee6565b836114d9565b9050919050565b60007f7fffffffffffffffffffffffffffffff5d576e7357a4501ddfe92f46681b20a08260001c1115611361576040517f08c379a000000000000000000000000000000000000000000000000000000000815260040161135890611c01565b60405180910390fd5b601b8460ff1614806113765750601c8460ff16145b6113b5576040517f08c379a00000000000000000000000000000000000000000000000000000000081526004016113ac90611c21565b60405180910390fd5b6000600186868686604051600081526020016040526040516113da9493929190611ada565b6020604051602081039080840390855afa1580156113fc573d6000803e3d6000fd5b505050602060405103519050600073ffffffffffffffffffffffffffffffffffffffff168173ffffffffffffffffffffffffffffffffffffffff161415611478576040517f08c379a000000000000000000000000000000000000000000000000000000000815260040161146f90611b41565b60405180910390fd5b80915050949350505050565b6001816000016000828254019250508190555050565b505050565b600083838346306040516020016114ba959493929190611a87565b6040516020818303038152906040528051906020012090509392505050565b600082826040516020016114ee9291906119b9565b60405160208183030381529060405280519060200120905092915050565b60008135905061151b81612377565b92915050565b6000813590506115308161238e565b92915050565b600081359050611545816123a5565b92915050565b60008135905061155a816123bc565b92915050565b60006020828403121561157257600080fd5b60006115808482850161150c565b91505092915050565b6000806040838503121561159c57600080fd5b60006115aa8582860161150c565b92505060206115bb8582860161150c565b9150509250929050565b6000806000606084860312156115da57600080fd5b60006115e88682870161150c565b93505060206115f98682870161150c565b925050604061160a86828701611536565b9150509250925092565b600080600080600080600060e0888a03121561162f57600080fd5b600061163d8a828b0161150c565b975050602061164e8a828b0161150c565b965050604061165f8a828b01611536565b95505060606116708a828b01611536565b94505060806116818a828b0161154b565b93505060a06116928a828b01611521565b92505060c06116a38a828b01611521565b91505092959891949750929550565b600080604083850312156116c557600080fd5b60006116d38582860161150c565b92505060206116e485828601611536565b9150509250929050565b6116f781611e08565b82525050565b61170681611e1a565b82525050565b61171581611e26565b82525050565b61172c61172782611e26565b611ecc565b82525050565b600061173d82611d57565b6117478185611d62565b9350611757818560208601611e67565b61176081611f34565b840191505092915050565b6000611778601883611d62565b915061178382611f45565b602082019050919050565b600061179b602383611d62565b91506117a682611f6e565b604082019050919050565b60006117be602283611d62565b91506117c982611fbd565b604082019050919050565b60006117e1602283611d62565b91506117ec8261200c565b604082019050919050565b6000611804600283611d73565b915061180f8261205b565b600282019050919050565b6000611827601d83611d62565b915061183282612084565b602082019050919050565b600061184a602683611d62565b9150611855826120ad565b604082019050919050565b600061186d602283611d62565b9150611878826120fc565b604082019050919050565b6000611890602283611d62565b915061189b8261214b565b604082019050919050565b60006118b3601e83611d62565b91506118be8261219a565b602082019050919050565b60006118d6602883611d62565b91506118e1826121c3565b604082019050919050565b60006118f9602183611d62565b915061190482612212565b604082019050919050565b600061191c602583611d62565b915061192782612261565b604082019050919050565b600061193f602483611d62565b915061194a826122b0565b604082019050919050565b6000611962602583611d62565b915061196d826122ff565b604082019050919050565b6000611985601f83611d62565b91506119908261234e565b602082019050919050565b6119a481611e50565b82525050565b6119b381611e5a565b82525050565b60006119c4826117f7565b91506119d0828561171b565b6020820191506119e0828461171b565b6020820191508190509392505050565b6000602082019050611a0560008301846116fd565b92915050565b6000602082019050611a20600083018461170c565b92915050565b600060c082019050611a3b600083018961170c565b611a4860208301886116ee565b611a5560408301876116ee565b611a62606083018661199b565b611a6f608083018561199b565b611a7c60a083018461199b565b979650505050505050565b600060a082019050611a9c600083018861170c565b611aa9602083018761170c565b611ab6604083018661170c565b611ac3606083018561199b565b611ad060808301846116ee565b9695505050505050565b6000608082019050611aef600083018761170c565b611afc60208301866119aa565b611b09604083018561170c565b611b16606083018461170c565b95945050505050565b60006020820190508181036000830152611b398184611732565b905092915050565b60006020820190508181036000830152611b5a8161176b565b9050919050565b60006020820190508181036000830152611b7a8161178e565b9050919050565b60006020820190508181036000830152611b9a816117b1565b9050919050565b60006020820190508181036000830152611bba816117d4565b9050919050565b60006020820190508181036000830152611bda8161181a565b9050919050565b60006020820190508181036000830152611bfa8161183d565b9050919050565b60006020820190508181036000830152611c1a81611860565b9050919050565b60006020820190508181036000830152611c3a81611883565b9050919050565b60006020820190508181036000830152611c5a816118a6565b9050919050565b60006020820190508181036000830152611c7a816118c9565b9050919050565b60006020820190508181036000830152611c9a816118ec565b9050919050565b60006020820190508181036000830152611cba8161190f565b9050919050565b60006020820190508181036000830152611cda81611932565b9050919050565b60006020820190508181036000830152611cfa81611955565b9050919050565b60006020820190508181036000830152611d1a81611978565b9050919050565b6000602082019050611d36600083018461199b565b92915050565b6000602082019050611d5160008301846119aa565b92915050565b600081519050919050565b600082825260208201905092915050565b600081905092915050565b6000611d8982611e50565b9150611d9483611e50565b9250827fffffffffffffffffffffffffffffffffffffffffffffffffffffffffffffffff03821115611dc957611dc8611ed6565b5b828201905092915050565b6000611ddf82611e50565b9150611dea83611e50565b925082821015611dfd57611dfc611ed6565b5b828203905092915050565b6000611e1382611e30565b9050919050565b60008115159050919050565b6000819050919050565b600073ffffffffffffffffffffffffffffffffffffffff82169050919050565b6000819050919050565b600060ff82169050919050565b60005b83811015611e85578082015181840152602081019050611e6a565b83811115611e94576000848401525b50505050565b60006002820490506001821680611eb257607f821691505b60208210811415611ec657611ec5611f05565b5b50919050565b6000819050919050565b7f4e487b7100000000000000000000000000000000000000000000000000000000600052601160045260246000fd5b7f4e487b7100000000000000000000000000000000000000000000000000000000600052602260045260246000fd5b6000601f19601f8301169050919050565b7f45434453413a20696e76616c6964207369676e61747572650000000000000000600082015250565b7f45524332303a207472616e7366657220746f20746865207a65726f206164647260008201527f6573730000000000000000000000000000000000000000000000000000000000602082015250565b7f45524332303a206275726e20616d6f756e7420657863656564732062616c616e60008201527f6365000000000000000000000000000000000000000000000000000000000000602082015250565b7f45524332303a20617070726f766520746f20746865207a65726f20616464726560008201527f7373000000000000000000000000000000000000000000000000000000000000602082015250565b7f1901000000000000000000000000000000000000000000000000000000000000600082015250565b7f45524332305065726d69743a206578706972656420646561646c696e65000000600082015250565b7f45524332303a207472616e7366657220616d6f756e742065786365656473206260008201527f616c616e63650000000000000000000000000000000000000000000000000000602082015250565b7f45434453413a20696e76616c6964207369676e6174757265202773272076616c60008201527f7565000000000000000000000000000000000000000000000000000000000000602082015250565b7f45434453413a20696e76616c6964207369676e6174757265202776272076616c60008201527f7565000000000000000000000000000000000000000000000000000000000000602082015250565b7f45524332305065726d69743a20696e76616c6964207369676e61747572650000600082015250565b7f45524332303a207472616e7366657220616d6f756e742065786365656473206160008201527f6c6c6f77616e6365000000000000000000000000000000000000000000000000602082015250565b7f45524332303a206275726e2066726f6d20746865207a65726f2061646472657360008201527f7300000000000000000000000000000000000000000000000000000000000000602082015250565b7f45524332303a207472616e736665722066726f6d20746865207a65726f20616460008201527f6472657373000000000000000000000000000000000000000000000000000000602082015250565b7f45524332303a20617070726f76652066726f6d20746865207a65726f2061646460008201527f7265737300000000000000000000000000000000000000000000000000000000602082015250565b7f45524332303a2064656372656173656420616c6c6f77616e63652062656c6f7760008201527f207a65726f000000000000000000000000000000000000000000000000000000602082015250565b7f45524332303a206d696e7420746f20746865207a65726f206164647265737300600082015250565b61238081611e08565b811461238b57600080fd5b50565b61239781611e26565b81146123a257600080fd5b50565b6123ae81611e50565b81146123b957600080fd5b50565b6123c581611e5a565b81146123d057600080fd5b5056fea2646970667358221220c06839548a8427f7be2425effd9059736a182b0c1ed5ee329bb7930a5107b06f64736f6c63430008020033",
  "immutableReferences": {
    "1085": [
      {
        "length": 32,
        "start": 2189
      }
    ],
    "1467": [
      {
        "length": 32,
        "start": 3858
      }
    ],
    "1469": [
      {
        "length": 32,
        "start": 3818
      }
    ],
    "1471": [
      {
        "length": 32,
        "start": 3934
      }
    ],
    "1473": [
      {
        "length": 32,
        "start": 3967
      }
    ],
    "1475": [
      {
        "length": 32,
        "start": 3901
      }
    ]
  },
  "source": "// SPDX-License-Identifier: MIT\n\npragma solidity ^0.8.0;\n \nimport \"@openzeppelin/contracts/token/ERC20/ERC20.sol\";\nimport \"@openzeppelin/contracts/token/ERC20/extensions/draft-ERC20Permit.sol\";\n\ncontract DAIMock is ERC20Permit {\n    constructor(uint256 initialSupply) ERC20(\"DAI-MOCK\", \"DAI\") ERC20Permit(\"DAI-MOCK\") public {\n        _mint(msg.sender, initialSupply);\n    }\n \n    function mint(address to, uint256 amount) public {\n        _mint(to, amount);\n    }\n \n    function burn(address from, uint256 amount) public {\n        _burn(from, amount);\n    }\n}\n",
  "sourcePath": "/Users/ivan/work/crypto/roulette/contracts/daimock.sol",
  "compiler": {
    "name": "solc",
    "version": "0.8.2+commit.661d1103.Emscripten.clang"
  },
  "schemaVersion": "3.3.4",
  "updatedAt": "2021-03-20T06:01:42.484Z",
  "networkType": "ethereum",
  "devdoc": {
    "kind": "dev",
    "methods": {
      "DOMAIN_SEPARATOR()": {
        "details": "See {IERC20Permit-DOMAIN_SEPARATOR}."
      },
      "allowance(address,address)": {
        "details": "See {IERC20-allowance}."
      },
      "approve(address,uint256)": {
        "details": "See {IERC20-approve}. Requirements: - `spender` cannot be the zero address."
      },
      "balanceOf(address)": {
        "details": "See {IERC20-balanceOf}."
      },
      "decimals()": {
        "details": "Returns the number of decimals used to get its user representation. For example, if `decimals` equals `2`, a balance of `505` tokens should be displayed to a user as `5,05` (`505 / 10 ** 2`). Tokens usually opt for a value of 18, imitating the relationship between Ether and Wei. This is the value {ERC20} uses, unless this function is overloaded; NOTE: This information is only used for _display_ purposes: it in no way affects any of the arithmetic of the contract, including {IERC20-balanceOf} and {IERC20-transfer}."
      },
      "decreaseAllowance(address,uint256)": {
        "details": "Atomically decreases the allowance granted to `spender` by the caller. This is an alternative to {approve} that can be used as a mitigation for problems described in {IERC20-approve}. Emits an {Approval} event indicating the updated allowance. Requirements: - `spender` cannot be the zero address. - `spender` must have allowance for the caller of at least `subtractedValue`."
      },
      "increaseAllowance(address,uint256)": {
        "details": "Atomically increases the allowance granted to `spender` by the caller. This is an alternative to {approve} that can be used as a mitigation for problems described in {IERC20-approve}. Emits an {Approval} event indicating the updated allowance. Requirements: - `spender` cannot be the zero address."
      },
      "name()": {
        "details": "Returns the name of the token."
      },
      "nonces(address)": {
        "details": "See {IERC20Permit-nonces}."
      },
      "permit(address,address,uint256,uint256,uint8,bytes32,bytes32)": {
        "details": "See {IERC20Permit-permit}."
      },
      "symbol()": {
        "details": "Returns the symbol of the token, usually a shorter version of the name."
      },
      "totalSupply()": {
        "details": "See {IERC20-totalSupply}."
      },
      "transfer(address,uint256)": {
        "details": "See {IERC20-transfer}. Requirements: - `recipient` cannot be the zero address. - the caller must have a balance of at least `amount`."
      },
      "transferFrom(address,address,uint256)": {
        "details": "See {IERC20-transferFrom}. Emits an {Approval} event indicating the updated allowance. This is not required by the EIP. See the note at the beginning of {ERC20}. Requirements: - `sender` and `recipient` cannot be the zero address. - `sender` must have a balance of at least `amount`. - the caller must have allowance for ``sender``'s tokens of at least `amount`."
      }
    },
    "version": 1
  },
  "userdoc": {
    "kind": "user",
    "methods": {},
    "version": 1
  }
}