{
  "contractName": "Roulette",
  "abi": [
    {
      "inputs": [
        {
          "internalType": "address",
          "name": "_bet_token",
          "type": "address"
        }
      ],
      "stateMutability": "nonpayable",
      "type": "constructor"
    },
    {
      "anonymous": false,
      "inputs": [
        {
          "indexed": true,
          "internalType": "address",
          "name": "owner",
          "type": "address"
        },
        {
          "indexed": true,
          "internalType": "address",
          "name": "spender",
          "type": "address"
        },
        {
          "indexed": false,
          "internalType": "uint256",
          "name": "value",
          "type": "uint256"
        }
      ],
      "name": "Approval",
      "type": "event"
    },
    {
      "anonymous": false,
      "inputs": [
        {
          "indexed": false,
          "internalType": "string",
          "name": "",
          "type": "string"
        },
        {
          "indexed": false,
          "internalType": "address",
          "name": "",
          "type": "address"
        },
        {
          "indexed": false,
          "internalType": "uint256",
          "name": "",
          "type": "uint256"
        },
        {
          "indexed": false,
          "internalType": "uint256",
          "name": "",
          "type": "uint256"
        },
        {
          "indexed": false,
          "internalType": "uint256",
          "name": "",
          "type": "uint256"
        }
      ],
      "name": "Bet",
      "type": "event"
    },
    {
      "anonymous": false,
      "inputs": [
        {
          "indexed": true,
          "internalType": "address",
          "name": "from",
          "type": "address"
        },
        {
          "indexed": true,
          "internalType": "address",
          "name": "to",
          "type": "address"
        },
        {
          "indexed": false,
          "internalType": "uint256",
          "name": "value",
          "type": "uint256"
        }
      ],
      "name": "Transfer",
      "type": "event"
    },
    {
      "inputs": [
        {
          "internalType": "address",
          "name": "owner",
          "type": "address"
        },
        {
          "internalType": "address",
          "name": "spender",
          "type": "address"
        }
      ],
      "name": "allowance",
      "outputs": [
        {
          "internalType": "uint256",
          "name": "",
          "type": "uint256"
        }
      ],
      "stateMutability": "view",
      "type": "function"
    },
    {
      "inputs": [
        {
          "internalType": "address",
          "name": "spender",
          "type": "address"
        },
        {
          "internalType": "uint256",
          "name": "amount",
          "type": "uint256"
        }
      ],
      "name": "approve",
      "outputs": [
        {
          "internalType": "bool",
          "name": "",
          "type": "bool"
        }
      ],
      "stateMutability": "nonpayable",
      "type": "function"
    },
    {
      "inputs": [
        {
          "internalType": "address",
          "name": "account",
          "type": "address"
        }
      ],
      "name": "balanceOf",
      "outputs": [
        {
          "internalType": "uint256",
          "name": "",
          "type": "uint256"
        }
      ],
      "stateMutability": "view",
      "type": "function"
    },
    {
      "inputs": [],
      "name": "bet_token",
      "outputs": [
        {
          "internalType": "address",
          "name": "",
          "type": "address"
        }
      ],
      "stateMutability": "view",
      "type": "function"
    },
    {
      "inputs": [],
      "name": "decimals",
      "outputs": [
        {
          "internalType": "uint8",
          "name": "",
          "type": "uint8"
        }
      ],
      "stateMutability": "view",
      "type": "function"
    },
    {
      "inputs": [
        {
          "internalType": "address",
          "name": "spender",
          "type": "address"
        },
        {
          "internalType": "uint256",
          "name": "subtractedValue",
          "type": "uint256"
        }
      ],
      "name": "decreaseAllowance",
      "outputs": [
        {
          "internalType": "bool",
          "name": "",
          "type": "bool"
        }
      ],
      "stateMutability": "nonpayable",
      "type": "function"
    },
    {
      "inputs": [
        {
          "internalType": "address",
          "name": "spender",
          "type": "address"
        },
        {
          "internalType": "uint256",
          "name": "addedValue",
          "type": "uint256"
        }
      ],
      "name": "increaseAllowance",
      "outputs": [
        {
          "internalType": "bool",
          "name": "",
          "type": "bool"
        }
      ],
      "stateMutability": "nonpayable",
      "type": "function"
    },
    {
      "inputs": [],
      "name": "name",
      "outputs": [
        {
          "internalType": "string",
          "name": "",
          "type": "string"
        }
      ],
      "stateMutability": "view",
      "type": "function"
    },
    {
      "inputs": [],
      "name": "symbol",
      "outputs": [
        {
          "internalType": "string",
          "name": "",
          "type": "string"
        }
      ],
      "stateMutability": "view",
      "type": "function"
    },
    {
      "inputs": [],
      "name": "totalSupply",
      "outputs": [
        {
          "internalType": "uint256",
          "name": "",
          "type": "uint256"
        }
      ],
      "stateMutability": "view",
      "type": "function"
    },
    {
      "inputs": [
        {
          "internalType": "address",
          "name": "recipient",
          "type": "address"
        },
        {
          "internalType": "uint256",
          "name": "amount",
          "type": "uint256"
        }
      ],
      "name": "transfer",
      "outputs": [
        {
          "internalType": "bool",
          "name": "",
          "type": "bool"
        }
      ],
      "stateMutability": "nonpayable",
      "type": "function"
    },
    {
      "inputs": [
        {
          "internalType": "address",
          "name": "sender",
          "type": "address"
        },
        {
          "internalType": "address",
          "name": "recipient",
          "type": "address"
        },
        {
          "internalType": "uint256",
          "name": "amount",
          "type": "uint256"
        }
      ],
      "name": "transferFrom",
      "outputs": [
        {
          "internalType": "bool",
          "name": "",
          "type": "bool"
        }
      ],
      "stateMutability": "nonpayable",
      "type": "function"
    },
    {
      "inputs": [],
      "name": "receive",
      "outputs": [],
      "stateMutability": "payable",
      "type": "function"
    },
    {
      "inputs": [
        {
          "internalType": "uint256",
          "name": "amount",
          "type": "uint256"
        }
      ],
      "name": "addLiquidity",
      "outputs": [],
      "stateMutability": "payable",
      "type": "function"
    },
    {
      "inputs": [],
      "name": "removeLiquidity",
      "outputs": [],
      "stateMutability": "payable",
      "type": "function"
    },
    {
      "inputs": [
        {
          "internalType": "uint256",
          "name": "color",
          "type": "uint256"
        },
        {
          "internalType": "uint256",
          "name": "amount",
          "type": "uint256"
        }
      ],
      "name": "betColor",
      "outputs": [],
      "stateMutability": "payable",
      "type": "function"
    },
    {
      "inputs": [],
      "name": "getMaxBet",
      "outputs": [
        {
          "internalType": "uint256",
          "name": "",
          "type": "uint256"
        }
      ],
      "stateMutability": "view",
      "type": "function"
    }
  ],
  "bytecode": "0x60806040523480156200001157600080fd5b5060405162002e1138038062002e11833981810160405281019062000037919062000363565b6040518060400160405280600981526020017f53414b5552415f563100000000000000000000000000000000000000000000008152506040518060400160405280600381526020017f53563100000000000000000000000000000000000000000000000000000000008152508160039080519060200190620000bb9291906200029c565b508060049080519060200190620000d49291906200029c565b505050620000ea3360006200013260201b60201c565b80600560006101000a81548173ffffffffffffffffffffffffffffffffffffffff021916908373ffffffffffffffffffffffffffffffffffffffff1602179055505062000589565b600073ffffffffffffffffffffffffffffffffffffffff168273ffffffffffffffffffffffffffffffffffffffff161415620001a5576040517f08c379a00000000000000000000000000000000000000000000000000000000081526004016200019c90620003c7565b60405180910390fd5b620001b9600083836200029760201b60201c565b8060026000828254620001cd919062000417565b92505081905550806000808473ffffffffffffffffffffffffffffffffffffffff1673ffffffffffffffffffffffffffffffffffffffff168152602001908152602001600020600082825462000224919062000417565b925050819055508173ffffffffffffffffffffffffffffffffffffffff16600073ffffffffffffffffffffffffffffffffffffffff167fddf252ad1be2c89b69c2b068fc378daa952ba7f163c4a11628f55a4df523b3ef836040516200028b9190620003e9565b60405180910390a35050565b505050565b828054620002aa90620004b2565b90600052602060002090601f016020900481019282620002ce57600085556200031a565b82601f10620002e957805160ff19168380011785556200031a565b828001600101855582156200031a579182015b8281111562000319578251825591602001919060010190620002fc565b5b5090506200032991906200032d565b5090565b5b80821115620003485760008160009055506001016200032e565b5090565b6000815190506200035d816200056f565b92915050565b6000602082840312156200037657600080fd5b600062000386848285016200034c565b91505092915050565b60006200039e601f8362000406565b9150620003ab8262000546565b602082019050919050565b620003c181620004a8565b82525050565b60006020820190508181036000830152620003e2816200038f565b9050919050565b6000602082019050620004006000830184620003b6565b92915050565b600082825260208201905092915050565b60006200042482620004a8565b91506200043183620004a8565b9250827fffffffffffffffffffffffffffffffffffffffffffffffffffffffffffffffff03821115620004695762000468620004e8565b5b828201905092915050565b6000620004818262000488565b9050919050565b600073ffffffffffffffffffffffffffffffffffffffff82169050919050565b6000819050919050565b60006002820490506001821680620004cb57607f821691505b60208210811415620004e257620004e162000517565b5b50919050565b7f4e487b7100000000000000000000000000000000000000000000000000000000600052601160045260246000fd5b7f4e487b7100000000000000000000000000000000000000000000000000000000600052602260045260246000fd5b7f45524332303a206d696e7420746f20746865207a65726f206164647265737300600082015250565b6200057a8162000474565b81146200058657600080fd5b50565b61287880620005996000396000f3fe6080604052600436106100fe5760003560e01c806367b9a28611610095578063a457c2d711610064578063a457c2d7146102fe578063a9059cbb1461033b578063c9af71b214610378578063dd62ed3e14610394578063e076471d146103d1576100fe565b806367b9a2861461028257806370a082311461028c57806395d89b41146102c9578063a3e76c0f146102f4576100fe565b8063313ce567116100d1578063313ce567146101d357806339509351146101fe57806351c6590a1461023b578063646668b614610257576100fe565b806306fdde0314610103578063095ea7b31461012e57806318160ddd1461016b57806323b872dd14610196575b600080fd5b34801561010f57600080fd5b506101186103fc565b6040516101259190611e7f565b60405180910390f35b34801561013a57600080fd5b50610155600480360381019061015091906119de565b61048e565b6040516101629190611e64565b60405180910390f35b34801561017757600080fd5b506101806104ac565b60405161018d91906120f1565b60405180910390f35b3480156101a257600080fd5b506101bd60048036038101906101b8919061198f565b6104b6565b6040516101ca9190611e64565b60405180910390f35b3480156101df57600080fd5b506101e86105b7565b6040516101f5919061210c565b60405180910390f35b34801561020a57600080fd5b50610225600480360381019061022091906119de565b6105c0565b6040516102329190611e64565b60405180910390f35b61025560048036038101906102509190611a43565b61066c565b005b34801561026357600080fd5b5061026c610898565b60405161027991906120f1565b60405180910390f35b61028a61095b565b005b34801561029857600080fd5b506102b360048036038101906102ae919061192a565b610b43565b6040516102c091906120f1565b60405180910390f35b3480156102d557600080fd5b506102de610b8b565b6040516102eb9190611e7f565b60405180910390f35b6102fc610c1d565b005b34801561030a57600080fd5b50610325600480360381019061032091906119de565b610c1f565b6040516103329190611e64565b60405180910390f35b34801561034757600080fd5b50610362600480360381019061035d91906119de565b610d13565b60405161036f9190611e64565b60405180910390f35b610392600480360381019061038d9190611a95565b610d31565b005b3480156103a057600080fd5b506103bb60048036038101906103b69190611953565b610fb2565b6040516103c891906120f1565b60405180910390f35b3480156103dd57600080fd5b506103e6611039565b6040516103f39190611de9565b60405180910390f35b60606003805461040b906122f2565b80601f0160208091040260200160405190810160405280929190818152602001828054610437906122f2565b80156104845780601f1061045957610100808354040283529160200191610484565b820191906000526020600020905b81548152906001019060200180831161046757829003601f168201915b5050505050905090565b60006104a261049b61105f565b8484611067565b6001905092915050565b6000600254905090565b60006104c3848484611232565b6000600160008673ffffffffffffffffffffffffffffffffffffffff1673ffffffffffffffffffffffffffffffffffffffff168152602001908152602001600020600061050e61105f565b73ffffffffffffffffffffffffffffffffffffffff1673ffffffffffffffffffffffffffffffffffffffff1681526020019081526020016000205490508281101561058e576040517f08c379a000000000000000000000000000000000000000000000000000000000815260040161058590611f99565b60405180910390fd5b6105ab8561059a61105f565b85846105a69190612224565b611067565b60019150509392505050565b60006012905090565b60006106626105cd61105f565b8484600160006105db61105f565b73ffffffffffffffffffffffffffffffffffffffff1673ffffffffffffffffffffffffffffffffffffffff16815260200190815260200160002060008873ffffffffffffffffffffffffffffffffffffffff1673ffffffffffffffffffffffffffffffffffffffff1681526020019081526020016000205461065d9190612143565b611067565b6001905092915050565b600560009054906101000a900473ffffffffffffffffffffffffffffffffffffffff1673ffffffffffffffffffffffffffffffffffffffff166323b872dd3330846040518463ffffffff1660e01b81526004016106cb93929190611e04565b602060405180830381600087803b1580156106e557600080fd5b505af11580156106f9573d6000803e3d6000fd5b505050506040513d601f19601f8201168201806040525081019061071d9190611a1a565b5060008111610761576040517f08c379a000000000000000000000000000000000000000000000000000000000815260040161075890611ec1565b60405180910390fd5b6000819050600081600560009054906101000a900473ffffffffffffffffffffffffffffffffffffffff1673ffffffffffffffffffffffffffffffffffffffff166370a08231306040518263ffffffff1660e01b81526004016107c49190611de9565b60206040518083038186803b1580156107dc57600080fd5b505afa1580156107f0573d6000803e3d6000fd5b505050506040513d601f19601f820116820180604052508101906108149190611a6c565b61081e9190612224565b9050600081116108595760006ec097ce7bc90715b34b9f1000000000905061085133848361084c91906121ca565b6114b1565b505050610895565b60006108636104ac565b90506000818461087391906121ca565b9050600083826108839190612199565b905061088f33826114b1565b50505050505b50565b600080600560009054906101000a900473ffffffffffffffffffffffffffffffffffffffff1673ffffffffffffffffffffffffffffffffffffffff166370a08231306040518263ffffffff1660e01b81526004016108f69190611de9565b60206040518083038186803b15801561090e57600080fd5b505afa158015610922573d6000803e3d6000fd5b505050506040513d601f19601f820116820180604052508101906109469190611a6c565b9050600a816109559190612199565b91505090565b600061096633610b43565b116109a6576040517f08c379a000000000000000000000000000000000000000000000000000000000815260040161099d90612091565b60405180910390fd5b6000600560009054906101000a900473ffffffffffffffffffffffffffffffffffffffff1673ffffffffffffffffffffffffffffffffffffffff166370a08231306040518263ffffffff1660e01b8152600401610a039190611de9565b60206040518083038186803b158015610a1b57600080fd5b505afa158015610a2f573d6000803e3d6000fd5b505050506040513d601f19601f82011682018060405250810190610a539190611a6c565b90506000610a6033610b43565b90506000610a6c6104ac565b8383610a7891906121ca565b610a829190612199565b9050610a8e3383611605565b600560009054906101000a900473ffffffffffffffffffffffffffffffffffffffff1673ffffffffffffffffffffffffffffffffffffffff1663a9059cbb33836040518363ffffffff1660e01b8152600401610aeb929190611e3b565b602060405180830381600087803b158015610b0557600080fd5b505af1158015610b19573d6000803e3d6000fd5b505050506040513d601f19601f82011682018060405250810190610b3d9190611a1a565b50505050565b60008060008373ffffffffffffffffffffffffffffffffffffffff1673ffffffffffffffffffffffffffffffffffffffff168152602001908152602001600020549050919050565b606060048054610b9a906122f2565b80601f0160208091040260200160405190810160405280929190818152602001828054610bc6906122f2565b8015610c135780601f10610be857610100808354040283529160200191610c13565b820191906000526020600020905b815481529060010190602001808311610bf657829003601f168201915b5050505050905090565b565b60008060016000610c2e61105f565b73ffffffffffffffffffffffffffffffffffffffff1673ffffffffffffffffffffffffffffffffffffffff16815260200190815260200160002060008573ffffffffffffffffffffffffffffffffffffffff1673ffffffffffffffffffffffffffffffffffffffff16815260200190815260200160002054905082811015610ceb576040517f08c379a0000000000000000000000000000000000000000000000000000000008152600401610ce2906120b1565b60405180910390fd5b610d08610cf661105f565b858584610d039190612224565b611067565b600191505092915050565b6000610d27610d2061105f565b8484611232565b6001905092915050565b600560009054906101000a900473ffffffffffffffffffffffffffffffffffffffff1673ffffffffffffffffffffffffffffffffffffffff166323b872dd3330846040518463ffffffff1660e01b8152600401610d9093929190611e04565b602060405180830381600087803b158015610daa57600080fd5b505af1158015610dbe573d6000803e3d6000fd5b505050506040513d601f19601f82011682018060405250810190610de29190611a1a565b50610deb610898565b811115610e2d576040517f08c379a0000000000000000000000000000000000000000000000000000000008152600401610e2490612051565b60405180910390fd5b60006025610e396117d9565b610e439190612364565b9050600081148015610e555750600283145b80610e6b575082600282610e699190612364565b145b15610f6f57600560009054906101000a900473ffffffffffffffffffffffffffffffffffffffff1673ffffffffffffffffffffffffffffffffffffffff1663a9059cbb33600285610ebc91906121ca565b6040518363ffffffff1660e01b8152600401610ed9929190611e3b565b602060405180830381600087803b158015610ef357600080fd5b505af1158015610f07573d6000803e3d6000fd5b505050506040513d601f19601f82011682018060405250810190610f2b9190611a1a565b507fa8c0f93e325cba2e605e8db9257de433fc020fbd68e246fb1dbbf6ef7ac15ea633348584604051610f619493929190611ff9565b60405180910390a150610fae565b7fa8c0f93e325cba2e605e8db9257de433fc020fbd68e246fb1dbbf6ef7ac15ea633348584604051610fa49493929190611f21565b60405180910390a1505b5050565b6000600160008473ffffffffffffffffffffffffffffffffffffffff1673ffffffffffffffffffffffffffffffffffffffff16815260200190815260200160002060008373ffffffffffffffffffffffffffffffffffffffff1673ffffffffffffffffffffffffffffffffffffffff16815260200190815260200160002054905092915050565b600560009054906101000a900473ffffffffffffffffffffffffffffffffffffffff1681565b600033905090565b600073ffffffffffffffffffffffffffffffffffffffff168373ffffffffffffffffffffffffffffffffffffffff1614156110d7576040517f08c379a00000000000000000000000000000000000000000000000000000000081526004016110ce90612071565b60405180910390fd5b600073ffffffffffffffffffffffffffffffffffffffff168273ffffffffffffffffffffffffffffffffffffffff161415611147576040517f08c379a000000000000000000000000000000000000000000000000000000000815260040161113e90611f01565b60405180910390fd5b80600160008573ffffffffffffffffffffffffffffffffffffffff1673ffffffffffffffffffffffffffffffffffffffff16815260200190815260200160002060008473ffffffffffffffffffffffffffffffffffffffff1673ffffffffffffffffffffffffffffffffffffffff168152602001908152602001600020819055508173ffffffffffffffffffffffffffffffffffffffff168373ffffffffffffffffffffffffffffffffffffffff167f8c5be1e5ebec7d5bd14f71427d1e84f3dd0314c0f7b2291e5b200ac8c7c3b9258360405161122591906120f1565b60405180910390a3505050565b600073ffffffffffffffffffffffffffffffffffffffff168373ffffffffffffffffffffffffffffffffffffffff1614156112a2576040517f08c379a000000000000000000000000000000000000000000000000000000000815260040161129990611fd9565b60405180910390fd5b600073ffffffffffffffffffffffffffffffffffffffff168273ffffffffffffffffffffffffffffffffffffffff161415611312576040517f08c379a000000000000000000000000000000000000000000000000000000000815260040161130990611ea1565b60405180910390fd5b61131d8383836118d1565b60008060008573ffffffffffffffffffffffffffffffffffffffff1673ffffffffffffffffffffffffffffffffffffffff168152602001908152602001600020549050818110156113a3576040517f08c379a000000000000000000000000000000000000000000000000000000000815260040161139a90611f79565b60405180910390fd5b81816113af9190612224565b6000808673ffffffffffffffffffffffffffffffffffffffff1673ffffffffffffffffffffffffffffffffffffffff16815260200190815260200160002081905550816000808573ffffffffffffffffffffffffffffffffffffffff1673ffffffffffffffffffffffffffffffffffffffff168152602001908152602001600020600082825461143f9190612143565b925050819055508273ffffffffffffffffffffffffffffffffffffffff168473ffffffffffffffffffffffffffffffffffffffff167fddf252ad1be2c89b69c2b068fc378daa952ba7f163c4a11628f55a4df523b3ef846040516114a391906120f1565b60405180910390a350505050565b600073ffffffffffffffffffffffffffffffffffffffff168273ffffffffffffffffffffffffffffffffffffffff161415611521576040517f08c379a0000000000000000000000000000000000000000000000000000000008152600401611518906120d1565b60405180910390fd5b61152d600083836118d1565b806002600082825461153f9190612143565b92505081905550806000808473ffffffffffffffffffffffffffffffffffffffff1673ffffffffffffffffffffffffffffffffffffffff16815260200190815260200160002060008282546115949190612143565b925050819055508173ffffffffffffffffffffffffffffffffffffffff16600073ffffffffffffffffffffffffffffffffffffffff167fddf252ad1be2c89b69c2b068fc378daa952ba7f163c4a11628f55a4df523b3ef836040516115f991906120f1565b60405180910390a35050565b600073ffffffffffffffffffffffffffffffffffffffff168273ffffffffffffffffffffffffffffffffffffffff161415611675576040517f08c379a000000000000000000000000000000000000000000000000000000000815260040161166c90611fb9565b60405180910390fd5b611681826000836118d1565b60008060008473ffffffffffffffffffffffffffffffffffffffff1673ffffffffffffffffffffffffffffffffffffffff16815260200190815260200160002054905081811015611707576040517f08c379a00000000000000000000000000000000000000000000000000000000081526004016116fe90611ee1565b60405180910390fd5b81816117139190612224565b6000808573ffffffffffffffffffffffffffffffffffffffff1673ffffffffffffffffffffffffffffffffffffffff1681526020019081526020016000208190555081600260008282546117679190612224565b92505081905550600073ffffffffffffffffffffffffffffffffffffffff168373ffffffffffffffffffffffffffffffffffffffff167fddf252ad1be2c89b69c2b068fc378daa952ba7f163c4a11628f55a4df523b3ef846040516117cc91906120f1565b60405180910390a3505050565b6000804342336040516020016117ef9190611d98565b6040516020818303038152906040528051906020012060001c6118129190612199565b4542416040516020016118259190611db3565b6040516020818303038152906040528051906020012060001c6118489190612199565b44426118549190612143565b61185e9190612143565b6118689190612143565b6118729190612143565b61187c9190612143565b60405160200161188c9190611dce565b6040516020818303038152906040528051906020012060001c90506103e880826118b69190612199565b6118c091906121ca565b816118cb9190612224565b91505090565b505050565b6000813590506118e5816127fd565b92915050565b6000815190506118fa81612814565b92915050565b60008135905061190f8161282b565b92915050565b6000815190506119248161282b565b92915050565b60006020828403121561193c57600080fd5b600061194a848285016118d6565b91505092915050565b6000806040838503121561196657600080fd5b6000611974858286016118d6565b9250506020611985858286016118d6565b9150509250929050565b6000806000606084860312156119a457600080fd5b60006119b2868287016118d6565b93505060206119c3868287016118d6565b92505060406119d486828701611900565b9150509250925092565b600080604083850312156119f157600080fd5b60006119ff858286016118d6565b9250506020611a1085828601611900565b9150509250929050565b600060208284031215611a2c57600080fd5b6000611a3a848285016118eb565b91505092915050565b600060208284031215611a5557600080fd5b6000611a6384828501611900565b91505092915050565b600060208284031215611a7e57600080fd5b6000611a8c84828501611915565b91505092915050565b60008060408385031215611aa857600080fd5b6000611ab685828601611900565b9250506020611ac785828601611900565b9150509250929050565b611ae2611add8261226a565b612336565b82525050565b611af181612258565b82525050565b611b08611b0382612258565b612324565b82525050565b611b178161227c565b82525050565b6000611b2882612127565b611b328185612132565b9350611b428185602086016122bf565b611b4b81612422565b840191505092915050565b6000611b63602383612132565b9150611b6e82612440565b604082019050919050565b6000611b86601b83612132565b9150611b918261248f565b602082019050919050565b6000611ba9602283612132565b9150611bb4826124b8565b604082019050919050565b6000611bcc602283612132565b9150611bd782612507565b604082019050919050565b6000611bef600483612132565b9150611bfa82612556565b602082019050919050565b6000611c12602683612132565b9150611c1d8261257f565b604082019050919050565b6000611c35602883612132565b9150611c40826125ce565b604082019050919050565b6000611c58602183612132565b9150611c638261261d565b604082019050919050565b6000611c7b602583612132565b9150611c868261266c565b604082019050919050565b6000611c9e600383612132565b9150611ca9826126bb565b602082019050919050565b6000611cc1602083612132565b9150611ccc826126e4565b602082019050919050565b6000611ce4602483612132565b9150611cef8261270d565b604082019050919050565b6000611d07601983612132565b9150611d128261275c565b602082019050919050565b6000611d2a602583612132565b9150611d3582612785565b604082019050919050565b6000611d4d601f83612132565b9150611d58826127d4565b602082019050919050565b611d6c816122a8565b82525050565b611d83611d7e826122a8565b61235a565b82525050565b611d92816122b2565b82525050565b6000611da48284611af7565b60148201915081905092915050565b6000611dbf8284611ad1565b60148201915081905092915050565b6000611dda8284611d72565b60208201915081905092915050565b6000602082019050611dfe6000830184611ae8565b92915050565b6000606082019050611e196000830186611ae8565b611e266020830185611ae8565b611e336040830184611d63565b949350505050565b6000604082019050611e506000830185611ae8565b611e5d6020830184611d63565b9392505050565b6000602082019050611e796000830184611b0e565b92915050565b60006020820190508181036000830152611e998184611b1d565b905092915050565b60006020820190508181036000830152611eba81611b56565b9050919050565b60006020820190508181036000830152611eda81611b79565b9050919050565b60006020820190508181036000830152611efa81611b9c565b9050919050565b60006020820190508181036000830152611f1a81611bbf565b9050919050565b600060a0820190508181036000830152611f3a81611be2565b9050611f496020830187611ae8565b611f566040830186611d63565b611f636060830185611d63565b611f706080830184611d63565b95945050505050565b60006020820190508181036000830152611f9281611c05565b9050919050565b60006020820190508181036000830152611fb281611c28565b9050919050565b60006020820190508181036000830152611fd281611c4b565b9050919050565b60006020820190508181036000830152611ff281611c6e565b9050919050565b600060a082019050818103600083015261201281611c91565b90506120216020830187611ae8565b61202e6040830186611d63565b61203b6060830185611d63565b6120486080830184611d63565b95945050505050565b6000602082019050818103600083015261206a81611cb4565b9050919050565b6000602082019050818103600083015261208a81611cd7565b9050919050565b600060208201905081810360008301526120aa81611cfa565b9050919050565b600060208201905081810360008301526120ca81611d1d565b9050919050565b600060208201905081810360008301526120ea81611d40565b9050919050565b60006020820190506121066000830184611d63565b92915050565b60006020820190506121216000830184611d89565b92915050565b600081519050919050565b600082825260208201905092915050565b600061214e826122a8565b9150612159836122a8565b9250827fffffffffffffffffffffffffffffffffffffffffffffffffffffffffffffffff0382111561218e5761218d612395565b5b828201905092915050565b60006121a4826122a8565b91506121af836122a8565b9250826121bf576121be6123c4565b5b828204905092915050565b60006121d5826122a8565b91506121e0836122a8565b9250817fffffffffffffffffffffffffffffffffffffffffffffffffffffffffffffffff048311821515161561221957612218612395565b5b828202905092915050565b600061222f826122a8565b915061223a836122a8565b92508282101561224d5761224c612395565b5b828203905092915050565b600061226382612288565b9050919050565b600061227582612288565b9050919050565b60008115159050919050565b600073ffffffffffffffffffffffffffffffffffffffff82169050919050565b6000819050919050565b600060ff82169050919050565b60005b838110156122dd5780820151818401526020810190506122c2565b838111156122ec576000848401525b50505050565b6000600282049050600182168061230a57607f821691505b6020821081141561231e5761231d6123f3565b5b50919050565b600061232f82612348565b9050919050565b600061234182612348565b9050919050565b600061235382612433565b9050919050565b6000819050919050565b600061236f826122a8565b915061237a836122a8565b92508261238a576123896123c4565b5b828206905092915050565b7f4e487b7100000000000000000000000000000000000000000000000000000000600052601160045260246000fd5b7f4e487b7100000000000000000000000000000000000000000000000000000000600052601260045260246000fd5b7f4e487b7100000000000000000000000000000000000000000000000000000000600052602260045260246000fd5b6000601f19601f8301169050919050565b60008160601b9050919050565b7f45524332303a207472616e7366657220746f20746865207a65726f206164647260008201527f6573730000000000000000000000000000000000000000000000000000000000602082015250565b7f596f75206469646e27742073656e6420616e792062616c616e63650000000000600082015250565b7f45524332303a206275726e20616d6f756e7420657863656564732062616c616e60008201527f6365000000000000000000000000000000000000000000000000000000000000602082015250565b7f45524332303a20617070726f766520746f20746865207a65726f20616464726560008201527f7373000000000000000000000000000000000000000000000000000000000000602082015250565b7f4c4f534500000000000000000000000000000000000000000000000000000000600082015250565b7f45524332303a207472616e7366657220616d6f756e742065786365656473206260008201527f616c616e63650000000000000000000000000000000000000000000000000000602082015250565b7f45524332303a207472616e7366657220616d6f756e742065786365656473206160008201527f6c6c6f77616e6365000000000000000000000000000000000000000000000000602082015250565b7f45524332303a206275726e2066726f6d20746865207a65726f2061646472657360008201527f7300000000000000000000000000000000000000000000000000000000000000602082015250565b7f45524332303a207472616e736665722066726f6d20746865207a65726f20616460008201527f6472657373000000000000000000000000000000000000000000000000000000602082015250565b7f57494e0000000000000000000000000000000000000000000000000000000000600082015250565b7f596f757220626574206578636565647320746865206d617820616c6c6f776564600082015250565b7f45524332303a20617070726f76652066726f6d20746865207a65726f2061646460008201527f7265737300000000000000000000000000000000000000000000000000000000602082015250565b7f596f757220646f6e27742068617665206c697175696469747900000000000000600082015250565b7f45524332303a2064656372656173656420616c6c6f77616e63652062656c6f7760008201527f207a65726f000000000000000000000000000000000000000000000000000000602082015250565b7f45524332303a206d696e7420746f20746865207a65726f206164647265737300600082015250565b61280681612258565b811461281157600080fd5b50565b61281d8161227c565b811461282857600080fd5b50565b612834816122a8565b811461283f57600080fd5b5056fea264697066735822122061ba40ab183b66f228b9c3fffac52a364569f704772bb48921859d3a808c43e664736f6c63430008020033",
  "immutableReferences": {},
  "source": "// SPDX-License-Identifier: GPL-3.0\n\npragma solidity ^0.8.0;\n\nimport \"@openzeppelin/contracts/token/ERC20/ERC20.sol\";\nimport \"@openzeppelin/contracts/token/ERC20/IERC20.sol\";\n\ncontract Roulette is ERC20 {\n    address public bet_token;\n\n    event Bet(string, address, uint, uint, uint256);\n    \n    constructor(address _bet_token) public ERC20(\"SAKURA_V1\", \"SV1\") {\n        _mint(msg.sender, 0);\n        bet_token = _bet_token;\n    }\n    \n    function receive() public payable {}\n    \n    function addLiquidity(uint256 amount) public payable {\n        IERC20(bet_token).transferFrom(msg.sender, address(this), amount);\n        require(amount > 0, \"You didn't send any balance\");\n        uint256 lx = amount;\n        uint256 l = IERC20(bet_token).balanceOf(address(this)) - lx;\n        if (l <= 0) {\n          uint256 base_shares = 10**36;\n          _mint(msg.sender, base_shares * lx);\n          return;\n        }\n        uint256 d = totalSupply();\n        uint256 p = lx*d;\n        uint256 dx = p / l;\n        \n        _mint(msg.sender, dx);\n    }\n    \n    function removeLiquidity() public payable {\n        require(balanceOf(msg.sender) > 0, \"Your don't have liquidity\");\n        uint256 current_funds = IERC20(bet_token).balanceOf(address(this));\n        uint256 sender_balance = balanceOf(msg.sender);\n        uint256 sender_liquidity = (sender_balance * current_funds) / totalSupply();\n        _burn(msg.sender, sender_balance);\n        IERC20(bet_token).transfer(msg.sender, sender_liquidity);\n    }\n    \n    // 0: black\n    // 1: red\n    // 2: green\n    function betColor(uint color, uint256 amount) public payable {\n        IERC20(bet_token).transferFrom(msg.sender, address(this), amount);\n        require(amount <= getMaxBet(), \"Your bet exceeds the max allowed\");\n        uint256 randomNumber = random() % 37;\n        if ((randomNumber == 0 && color == 2) || (randomNumber % 2 == color)) {\n            IERC20(bet_token).transfer(msg.sender, amount * 2);\n            emit Bet(\"WIN\", address(msg.sender), msg.value, color, randomNumber);\n            return;\n        }\n        emit Bet(\"LOSE\", address(msg.sender), msg.value, color, randomNumber);\n    }\n    \n    function getMaxBet() public view returns(uint) {\n        uint256 current_balance = IERC20(bet_token).balanceOf(address(this));\n        return current_balance / 10;\n    }\n\n    // Temp random, replace with Chainlink VRF\n    function random() private view returns(uint256) {\n        uint256 seed = uint256(keccak256(abi.encodePacked(\n            block.timestamp + block.difficulty +\n            ((uint256(keccak256(abi.encodePacked(block.coinbase)))) / (block.timestamp)) +\n            block.gaslimit + \n            ((uint256(keccak256(abi.encodePacked(msg.sender)))) / (block.timestamp)) +\n            block.number\n        )));\n        \n        return (seed - ((seed / 1000) * 1000));\n    }\n}\n",
  "sourcePath": "/Users/ivan/work/crypto/roulette/contracts/Roulette.sol",
  "compiler": {
    "name": "solc",
    "version": "0.8.2+commit.661d1103.Emscripten.clang"
  },
  "schemaVersion": "3.3.4",
  "updatedAt": "2021-03-19T04:11:53.361Z",
  "devdoc": {
    "kind": "dev",
    "methods": {
      "allowance(address,address)": {
        "details": "See {IERC20-allowance}."
      },
      "approve(address,uint256)": {
        "details": "See {IERC20-approve}. Requirements: - `spender` cannot be the zero address."
      },
      "balanceOf(address)": {
        "details": "See {IERC20-balanceOf}."
      },
      "decimals()": {
        "details": "Returns the number of decimals used to get its user representation. For example, if `decimals` equals `2`, a balance of `505` tokens should be displayed to a user as `5,05` (`505 / 10 ** 2`). Tokens usually opt for a value of 18, imitating the relationship between Ether and Wei. This is the value {ERC20} uses, unless this function is overloaded; NOTE: This information is only used for _display_ purposes: it in no way affects any of the arithmetic of the contract, including {IERC20-balanceOf} and {IERC20-transfer}."
      },
      "decreaseAllowance(address,uint256)": {
        "details": "Atomically decreases the allowance granted to `spender` by the caller. This is an alternative to {approve} that can be used as a mitigation for problems described in {IERC20-approve}. Emits an {Approval} event indicating the updated allowance. Requirements: - `spender` cannot be the zero address. - `spender` must have allowance for the caller of at least `subtractedValue`."
      },
      "increaseAllowance(address,uint256)": {
        "details": "Atomically increases the allowance granted to `spender` by the caller. This is an alternative to {approve} that can be used as a mitigation for problems described in {IERC20-approve}. Emits an {Approval} event indicating the updated allowance. Requirements: - `spender` cannot be the zero address."
      },
      "name()": {
        "details": "Returns the name of the token."
      },
      "symbol()": {
        "details": "Returns the symbol of the token, usually a shorter version of the name."
      },
      "totalSupply()": {
        "details": "See {IERC20-totalSupply}."
      },
      "transfer(address,uint256)": {
        "details": "See {IERC20-transfer}. Requirements: - `recipient` cannot be the zero address. - the caller must have a balance of at least `amount`."
      },
      "transferFrom(address,address,uint256)": {
        "details": "See {IERC20-transferFrom}. Emits an {Approval} event indicating the updated allowance. This is not required by the EIP. See the note at the beginning of {ERC20}. Requirements: - `sender` and `recipient` cannot be the zero address. - `sender` must have a balance of at least `amount`. - the caller must have allowance for ``sender``'s tokens of at least `amount`."
      }
    },
    "version": 1
  },
  "userdoc": {
    "kind": "user",
    "methods": {},
    "version": 1
  }
}