{
  "contractName": "Roulette",
  "abi": [
    {
      "constant": true,
      "inputs": [],
      "name": "current_shares",
      "outputs": [
        {
          "internalType": "uint256",
          "name": "",
          "type": "uint256"
        }
      ],
      "payable": false,
      "stateMutability": "view",
      "type": "function"
    },
    {
      "constant": true,
      "inputs": [
        {
          "internalType": "address",
          "name": "",
          "type": "address"
        }
      ],
      "name": "shares_of",
      "outputs": [
        {
          "internalType": "uint256",
          "name": "",
          "type": "uint256"
        }
      ],
      "payable": false,
      "stateMutability": "view",
      "type": "function"
    },
    {
      "constant": false,
      "inputs": [],
      "name": "receive",
      "outputs": [],
      "payable": true,
      "stateMutability": "payable",
      "type": "function"
    },
    {
      "constant": false,
      "inputs": [],
      "name": "addLiquidity",
      "outputs": [],
      "payable": true,
      "stateMutability": "payable",
      "type": "function"
    },
    {
      "constant": false,
      "inputs": [],
      "name": "removeLiquidity",
      "outputs": [],
      "payable": true,
      "stateMutability": "payable",
      "type": "function"
    },
    {
      "constant": false,
      "inputs": [
        {
          "internalType": "uint256",
          "name": "betNumber",
          "type": "uint256"
        }
      ],
      "name": "bet",
      "outputs": [],
      "payable": true,
      "stateMutability": "payable",
      "type": "function"
    },
    {
      "constant": true,
      "inputs": [],
      "name": "getMaxBet",
      "outputs": [
        {
          "internalType": "uint256",
          "name": "",
          "type": "uint256"
        }
      ],
      "payable": false,
      "stateMutability": "view",
      "type": "function"
    },
    {
      "constant": true,
      "inputs": [],
      "name": "getCurrentShares",
      "outputs": [
        {
          "internalType": "uint256",
          "name": "",
          "type": "uint256"
        }
      ],
      "payable": false,
      "stateMutability": "view",
      "type": "function"
    },
    {
      "constant": true,
      "inputs": [
        {
          "internalType": "address",
          "name": "_address",
          "type": "address"
        }
      ],
      "name": "getSharesOf",
      "outputs": [
        {
          "internalType": "uint256",
          "name": "",
          "type": "uint256"
        }
      ],
      "payable": false,
      "stateMutability": "view",
      "type": "function"
    }
  ],
  "bytecode": "0x6080604052606460025534801561001557600080fd5b50610679806100256000396000f3fe6080604052600436106100865760003560e01c80638948261d116100595780638948261d14610119578063a3e76c0f14610144578063b4c670321461014e578063e8078d94146101b3578063ee85348e146101bd57610086565b80630f636bd31461008b578063646668b6146100b657806367b9a286146100e15780637365870b146100eb575b600080fd5b34801561009757600080fd5b506100a0610222565b6040518082815260200191505060405180910390f35b3480156100c257600080fd5b506100cb610228565b6040518082815260200191505060405180910390f35b6100e961023f565b005b6101176004803603602081101561010157600080fd5b81019080803590602001909291905050506103ed565b005b34801561012557600080fd5b5061012e6104cb565b6040518082815260200191505060405180910390f35b61014c6104d4565b005b34801561015a57600080fd5b5061019d6004803603602081101561017157600080fd5b81019080803573ffffffffffffffffffffffffffffffffffffffff1690602001909291905050506104d6565b6040518082815260200191505060405180910390f35b6101bb6104ee565b005b3480156101c957600080fd5b5061020c600480360360208110156101e057600080fd5b81019080803573ffffffffffffffffffffffffffffffffffffffff1690602001909291905050506105fc565b6040518082815260200191505060405180910390f35b60015481565b600080479050600a818161023857fe5b0491505090565b60008060003373ffffffffffffffffffffffffffffffffffffffff1673ffffffffffffffffffffffffffffffffffffffff16815260200190815260200160002054116102f3576040517f08c379a00000000000000000000000000000000000000000000000000000000081526004018080602001828103825260198152602001807f596f757220646f6e27742068617665206c69717569646974790000000000000081525060200191505060405180910390fd5b600047905060008060003373ffffffffffffffffffffffffffffffffffffffff1673ffffffffffffffffffffffffffffffffffffffff16815260200190815260200160002054905060006001548383028161034a57fe5b0490503373ffffffffffffffffffffffffffffffffffffffff166108fc829081150290604051600060405180830381858888f19350505050158015610393573d6000803e3d6000fd5b508160016000828254039250508190555060008060003373ffffffffffffffffffffffffffffffffffffffff1673ffffffffffffffffffffffffffffffffffffffff16815260200190815260200160002081905550505050565b6103f5610228565b34111561046a576040517f08c379a00000000000000000000000000000000000000000000000000000000081526004018080602001828103825260208152602001807f596f757220626574206578636565647320746865206d617820616c6c6f77656481525060200191505060405180910390fd5b60006002828161047657fe5b0614156104c8573373ffffffffffffffffffffffffffffffffffffffff166108fc600234029081150290604051600060405180830381858888f193505050501580156104c6573d6000803e3d6000fd5b505b50565b6000600a905090565b565b60006020528060005260406000206000915090505481565b60003411610564576040517f08c379a000000000000000000000000000000000000000000000000000000000815260040180806020018281038252601a8152602001807f596f7572206469646e27742073656e6420612062616c616e636500000000000081525060200191505060405180910390fd5b60003490506000479050600060015490506000818402905082818161058557fe5b0490506000600154141561059a57620186a090505b806000803373ffffffffffffffffffffffffffffffffffffffff1673ffffffffffffffffffffffffffffffffffffffff168152602001908152602001600020600082825401925050819055508060016000828254019250508190555050505050565b60008060008373ffffffffffffffffffffffffffffffffffffffff1673ffffffffffffffffffffffffffffffffffffffff16815260200190815260200160002054905091905056fea265627a7a72315820c555b33d42187917a13dcc1072e5e6fe04f3f0bfdfea379bd56f6954ff85f3a164736f6c63430005100032",
  "source": "// SPDX-License-Identifier: MIT\npragma solidity >=0.4.25 <0.7.0;\n\n// This is just a simple example of a coin-like contract.\n// It is not standards compatible and cannot be expected to talk to other\n// coin/token contracts. If you want to create a standards-compliant\n// token, see: https://github.com/ConsenSys/Tokens. Cheers!\n\ncontract Roulette {\n\n  mapping (address => uint) public shares_of;\n  uint256 public current_shares;\n  uint256 decimals = 100;\n\n  function receive() public payable {}\n\n  function addLiquidity() public payable {\n    require(msg.value > 0, \"Your didn't send a balance\");\n    uint lx = msg.value;\n    uint l = address(this).balance;\n    uint d = current_shares;\n    uint p = lx*d;\n    p = p / l;\n    // shares_of[msg.sender] += msg.value;\n    // current_shares += msg.value;\n\n    if (current_shares == 0) {\n      p = 100000;\n    }\n\n    shares_of[msg.sender] += p;\n    current_shares += p;\n  }\n\n  function removeLiquidity() public payable {\n    require(shares_of[msg.sender] > 0, \"Your don't have liquidity\");\n    uint current_balance = address(this).balance;\n    uint senderShares = shares_of[msg.sender];\n    uint senderLiquidity = (senderShares * current_balance) / current_shares;\n    msg.sender.transfer(senderLiquidity);\n    current_shares -= senderShares;\n    shares_of[msg.sender] = 0;\n  }\n\n  function bet(uint betNumber) public payable {\n    require(msg.value <= getMaxBet(), \"Your bet exceeds the max allowed\");\n    if (betNumber % 2 == 0) {\n      msg.sender.transfer(msg.value * 2);\n    }\n  }\n\n  function getMaxBet() public view returns(uint) {\n    uint currentBalance = address(this).balance;\n    return currentBalance / 10;\n  }\n\n  function getCurrentShares() public view returns(uint) {\n    return 10;\n  }\n\n  function getSharesOf(address _address) public view returns(uint) {\n    return shares_of[_address];\n  }\n}\n",
  "sourcePath": "/home/ivan/work/crypto/MetaCoin/contracts/Roulette.sol",
  "compiler": {
    "name": "solc",
    "version": "0.5.16+commit.9c3226ce.Emscripten.clang"
  },
  "schemaVersion": "3.3.3",
  "updatedAt": "2021-01-13T00:37:14.153Z",
  "devdoc": {
    "methods": {}
  },
  "userdoc": {
    "methods": {}
  }
}