{
  "contractName": "Roulette",
  "abi": [
    {
      "inputs": [
        {
          "internalType": "address",
          "name": "_bet_token",
          "type": "address"
        }
      ],
      "stateMutability": "nonpayable",
      "type": "constructor"
    },
    {
      "anonymous": false,
      "inputs": [
        {
          "indexed": true,
          "internalType": "address",
          "name": "owner",
          "type": "address"
        },
        {
          "indexed": true,
          "internalType": "address",
          "name": "spender",
          "type": "address"
        },
        {
          "indexed": false,
          "internalType": "uint256",
          "name": "value",
          "type": "uint256"
        }
      ],
      "name": "Approval",
      "type": "event"
    },
    {
      "anonymous": false,
      "inputs": [
        {
          "indexed": false,
          "internalType": "string",
          "name": "",
          "type": "string"
        },
        {
          "indexed": false,
          "internalType": "address",
          "name": "",
          "type": "address"
        },
        {
          "indexed": false,
          "internalType": "uint256",
          "name": "",
          "type": "uint256"
        },
        {
          "indexed": false,
          "internalType": "uint256",
          "name": "",
          "type": "uint256"
        },
        {
          "indexed": false,
          "internalType": "uint256",
          "name": "",
          "type": "uint256"
        }
      ],
      "name": "Bet",
      "type": "event"
    },
    {
      "anonymous": false,
      "inputs": [
        {
          "indexed": true,
          "internalType": "address",
          "name": "from",
          "type": "address"
        },
        {
          "indexed": true,
          "internalType": "address",
          "name": "to",
          "type": "address"
        },
        {
          "indexed": false,
          "internalType": "uint256",
          "name": "value",
          "type": "uint256"
        }
      ],
      "name": "Transfer",
      "type": "event"
    },
    {
      "inputs": [
        {
          "internalType": "address",
          "name": "owner",
          "type": "address"
        },
        {
          "internalType": "address",
          "name": "spender",
          "type": "address"
        }
      ],
      "name": "allowance",
      "outputs": [
        {
          "internalType": "uint256",
          "name": "",
          "type": "uint256"
        }
      ],
      "stateMutability": "view",
      "type": "function",
      "constant": true
    },
    {
      "inputs": [
        {
          "internalType": "address",
          "name": "spender",
          "type": "address"
        },
        {
          "internalType": "uint256",
          "name": "amount",
          "type": "uint256"
        }
      ],
      "name": "approve",
      "outputs": [
        {
          "internalType": "bool",
          "name": "",
          "type": "bool"
        }
      ],
      "stateMutability": "nonpayable",
      "type": "function"
    },
    {
      "inputs": [
        {
          "internalType": "address",
          "name": "account",
          "type": "address"
        }
      ],
      "name": "balanceOf",
      "outputs": [
        {
          "internalType": "uint256",
          "name": "",
          "type": "uint256"
        }
      ],
      "stateMutability": "view",
      "type": "function",
      "constant": true
    },
    {
      "inputs": [],
      "name": "bet_token",
      "outputs": [
        {
          "internalType": "address",
          "name": "",
          "type": "address"
        }
      ],
      "stateMutability": "view",
      "type": "function",
      "constant": true
    },
    {
      "inputs": [],
      "name": "decimals",
      "outputs": [
        {
          "internalType": "uint8",
          "name": "",
          "type": "uint8"
        }
      ],
      "stateMutability": "view",
      "type": "function",
      "constant": true
    },
    {
      "inputs": [
        {
          "internalType": "address",
          "name": "spender",
          "type": "address"
        },
        {
          "internalType": "uint256",
          "name": "subtractedValue",
          "type": "uint256"
        }
      ],
      "name": "decreaseAllowance",
      "outputs": [
        {
          "internalType": "bool",
          "name": "",
          "type": "bool"
        }
      ],
      "stateMutability": "nonpayable",
      "type": "function"
    },
    {
      "inputs": [
        {
          "internalType": "address",
          "name": "spender",
          "type": "address"
        },
        {
          "internalType": "uint256",
          "name": "addedValue",
          "type": "uint256"
        }
      ],
      "name": "increaseAllowance",
      "outputs": [
        {
          "internalType": "bool",
          "name": "",
          "type": "bool"
        }
      ],
      "stateMutability": "nonpayable",
      "type": "function"
    },
    {
      "inputs": [],
      "name": "name",
      "outputs": [
        {
          "internalType": "string",
          "name": "",
          "type": "string"
        }
      ],
      "stateMutability": "view",
      "type": "function",
      "constant": true
    },
    {
      "inputs": [],
      "name": "symbol",
      "outputs": [
        {
          "internalType": "string",
          "name": "",
          "type": "string"
        }
      ],
      "stateMutability": "view",
      "type": "function",
      "constant": true
    },
    {
      "inputs": [],
      "name": "totalSupply",
      "outputs": [
        {
          "internalType": "uint256",
          "name": "",
          "type": "uint256"
        }
      ],
      "stateMutability": "view",
      "type": "function",
      "constant": true
    },
    {
      "inputs": [
        {
          "internalType": "address",
          "name": "recipient",
          "type": "address"
        },
        {
          "internalType": "uint256",
          "name": "amount",
          "type": "uint256"
        }
      ],
      "name": "transfer",
      "outputs": [
        {
          "internalType": "bool",
          "name": "",
          "type": "bool"
        }
      ],
      "stateMutability": "nonpayable",
      "type": "function"
    },
    {
      "inputs": [
        {
          "internalType": "address",
          "name": "sender",
          "type": "address"
        },
        {
          "internalType": "address",
          "name": "recipient",
          "type": "address"
        },
        {
          "internalType": "uint256",
          "name": "amount",
          "type": "uint256"
        }
      ],
      "name": "transferFrom",
      "outputs": [
        {
          "internalType": "bool",
          "name": "",
          "type": "bool"
        }
      ],
      "stateMutability": "nonpayable",
      "type": "function"
    },
    {
      "inputs": [],
      "name": "receive",
      "outputs": [],
      "stateMutability": "payable",
      "type": "function",
      "payable": true
    },
    {
      "inputs": [
        {
          "internalType": "uint256",
          "name": "amount",
          "type": "uint256"
        },
        {
          "internalType": "uint256",
          "name": "deadline",
          "type": "uint256"
        },
        {
          "internalType": "uint8",
          "name": "v",
          "type": "uint8"
        },
        {
          "internalType": "bytes32",
          "name": "r",
          "type": "bytes32"
        },
        {
          "internalType": "bytes32",
          "name": "s",
          "type": "bytes32"
        }
      ],
      "name": "addLiquidity",
      "outputs": [],
      "stateMutability": "payable",
      "type": "function",
      "payable": true
    },
    {
      "inputs": [],
      "name": "removeLiquidity",
      "outputs": [],
      "stateMutability": "payable",
      "type": "function",
      "payable": true
    },
    {
      "inputs": [
        {
          "internalType": "uint256",
          "name": "color",
          "type": "uint256"
        },
        {
          "internalType": "uint256",
          "name": "amount",
          "type": "uint256"
        },
        {
          "internalType": "uint256",
          "name": "deadline",
          "type": "uint256"
        },
        {
          "internalType": "uint8",
          "name": "v",
          "type": "uint8"
        },
        {
          "internalType": "bytes32",
          "name": "r",
          "type": "bytes32"
        },
        {
          "internalType": "bytes32",
          "name": "s",
          "type": "bytes32"
        }
      ],
      "name": "betColor",
      "outputs": [],
      "stateMutability": "payable",
      "type": "function",
      "payable": true
    },
    {
      "inputs": [],
      "name": "getMaxBet",
      "outputs": [
        {
          "internalType": "uint256",
          "name": "",
          "type": "uint256"
        }
      ],
      "stateMutability": "view",
      "type": "function",
      "constant": true
    }
  ],
  "bytecode": "0x60806040523480156200001157600080fd5b50604051620030c6380380620030c6833981810160405281019062000037919062000363565b6040518060400160405280600981526020017f53414b5552415f563100000000000000000000000000000000000000000000008152506040518060400160405280600381526020017f53563100000000000000000000000000000000000000000000000000000000008152508160039080519060200190620000bb9291906200029c565b508060049080519060200190620000d49291906200029c565b505050620000ea3360006200013260201b60201c565b80600560006101000a81548173ffffffffffffffffffffffffffffffffffffffff021916908373ffffffffffffffffffffffffffffffffffffffff1602179055505062000589565b600073ffffffffffffffffffffffffffffffffffffffff168273ffffffffffffffffffffffffffffffffffffffff161415620001a5576040517f08c379a00000000000000000000000000000000000000000000000000000000081526004016200019c90620003c7565b60405180910390fd5b620001b9600083836200029760201b60201c565b8060026000828254620001cd919062000417565b92505081905550806000808473ffffffffffffffffffffffffffffffffffffffff1673ffffffffffffffffffffffffffffffffffffffff168152602001908152602001600020600082825462000224919062000417565b925050819055508173ffffffffffffffffffffffffffffffffffffffff16600073ffffffffffffffffffffffffffffffffffffffff167fddf252ad1be2c89b69c2b068fc378daa952ba7f163c4a11628f55a4df523b3ef836040516200028b9190620003e9565b60405180910390a35050565b505050565b828054620002aa90620004b2565b90600052602060002090601f016020900481019282620002ce57600085556200031a565b82601f10620002e957805160ff19168380011785556200031a565b828001600101855582156200031a579182015b8281111562000319578251825591602001919060010190620002fc565b5b5090506200032991906200032d565b5090565b5b80821115620003485760008160009055506001016200032e565b5090565b6000815190506200035d816200056f565b92915050565b6000602082840312156200037657600080fd5b600062000386848285016200034c565b91505092915050565b60006200039e601f8362000406565b9150620003ab8262000546565b602082019050919050565b620003c181620004a8565b82525050565b60006020820190508181036000830152620003e2816200038f565b9050919050565b6000602082019050620004006000830184620003b6565b92915050565b600082825260208201905092915050565b60006200042482620004a8565b91506200043183620004a8565b9250827fffffffffffffffffffffffffffffffffffffffffffffffffffffffffffffffff03821115620004695762000468620004e8565b5b828201905092915050565b6000620004818262000488565b9050919050565b600073ffffffffffffffffffffffffffffffffffffffff82169050919050565b6000819050919050565b60006002820490506001821680620004cb57607f821691505b60208210811415620004e257620004e162000517565b5b50919050565b7f4e487b7100000000000000000000000000000000000000000000000000000000600052601160045260246000fd5b7f4e487b7100000000000000000000000000000000000000000000000000000000600052602260045260246000fd5b7f45524332303a206d696e7420746f20746865207a65726f206164647265737300600082015250565b6200057a8162000474565b81146200058657600080fd5b50565b612b2d80620005996000396000f3fe6080604052600436106100fe5760003560e01c806367b9a28611610095578063a3e76c0f11610064578063a3e76c0f14610310578063a457c2d71461031a578063a9059cbb14610357578063dd62ed3e14610394578063e076471d146103d1576100fe565b806367b9a2861461028257806370a082311461028c5780638995c782146102c957806395d89b41146102e5576100fe565b8063313ce567116100d1578063313ce567146101d35780633238264a146101fe578063395093511461021a578063646668b614610257576100fe565b806306fdde0314610103578063095ea7b31461012e57806318160ddd1461016b57806323b872dd14610196575b600080fd5b34801561010f57600080fd5b506101186103fc565b60405161012591906120fc565b60405180910390f35b34801561013a57600080fd5b5061015560048036038101906101509190611b42565b61048e565b60405161016291906120e1565b60405180910390f35b34801561017757600080fd5b506101806104ac565b60405161018d919061236e565b60405180910390f35b3480156101a257600080fd5b506101bd60048036038101906101b89190611af3565b6104b6565b6040516101ca91906120e1565b60405180910390f35b3480156101df57600080fd5b506101e86105b7565b6040516101f59190612389565b60405180910390f35b61021860048036038101906102139190611c59565b6105c0565b005b34801561022657600080fd5b50610241600480360381019061023c9190611b42565b610889565b60405161024e91906120e1565b60405180910390f35b34801561026357600080fd5b5061026c610935565b604051610279919061236e565b60405180910390f35b61028a6109f8565b005b34801561029857600080fd5b506102b360048036038101906102ae9190611a8e565b610be0565b6040516102c0919061236e565b60405180910390f35b6102e360048036038101906102de9190611bd0565b610c28565b005b3480156102f157600080fd5b506102fa610f46565b60405161030791906120fc565b60405180910390f35b610318610fd8565b005b34801561032657600080fd5b50610341600480360381019061033c9190611b42565b610fda565b60405161034e91906120e1565b60405180910390f35b34801561036357600080fd5b5061037e60048036038101906103799190611b42565b6110ce565b60405161038b91906120e1565b60405180910390f35b3480156103a057600080fd5b506103bb60048036038101906103b69190611ab7565b6110ec565b6040516103c8919061236e565b60405180910390f35b3480156103dd57600080fd5b506103e6611173565b6040516103f39190611ff7565b60405180910390f35b60606003805461040b90612579565b80601f016020809104026020016040519081016040528092919081815260200182805461043790612579565b80156104845780601f1061045957610100808354040283529160200191610484565b820191906000526020600020905b81548152906001019060200180831161046757829003601f168201915b5050505050905090565b60006104a261049b611199565b84846111a1565b6001905092915050565b6000600254905090565b60006104c384848461136c565b6000600160008673ffffffffffffffffffffffffffffffffffffffff1673ffffffffffffffffffffffffffffffffffffffff168152602001908152602001600020600061050e611199565b73ffffffffffffffffffffffffffffffffffffffff1673ffffffffffffffffffffffffffffffffffffffff1681526020019081526020016000205490508281101561058e576040517f08c379a000000000000000000000000000000000000000000000000000000000815260040161058590612216565b60405180910390fd5b6105ab8561059a611199565b85846105a691906124a1565b6111a1565b60019150509392505050565b60006012905090565b600560009054906101000a900473ffffffffffffffffffffffffffffffffffffffff1673ffffffffffffffffffffffffffffffffffffffff1663d505accf333088888888886040518863ffffffff1660e01b81526004016106279796959493929190612049565b600060405180830381600087803b15801561064157600080fd5b505af1158015610655573d6000803e3d6000fd5b50505050600560009054906101000a900473ffffffffffffffffffffffffffffffffffffffff1673ffffffffffffffffffffffffffffffffffffffff166323b872dd3330886040518463ffffffff1660e01b81526004016106b893929190612012565b602060405180830381600087803b1580156106d257600080fd5b505af11580156106e6573d6000803e3d6000fd5b505050506040513d601f19601f8201168201806040525081019061070a9190611b7e565b506000851161074e576040517f08c379a00000000000000000000000000000000000000000000000000000000081526004016107459061213e565b60405180910390fd5b6000859050600081600560009054906101000a900473ffffffffffffffffffffffffffffffffffffffff1673ffffffffffffffffffffffffffffffffffffffff166370a08231306040518263ffffffff1660e01b81526004016107b19190611ff7565b60206040518083038186803b1580156107c957600080fd5b505afa1580156107dd573d6000803e3d6000fd5b505050506040513d601f19601f820116820180604052508101906108019190611ba7565b61080b91906124a1565b9050600081116108465760006ec097ce7bc90715b34b9f1000000000905061083e3384836108399190612447565b6115eb565b505050610882565b60006108506104ac565b9050600081846108609190612447565b9050600083826108709190612416565b905061087c33826115eb565b50505050505b5050505050565b600061092b610896611199565b8484600160006108a4611199565b73ffffffffffffffffffffffffffffffffffffffff1673ffffffffffffffffffffffffffffffffffffffff16815260200190815260200160002060008873ffffffffffffffffffffffffffffffffffffffff1673ffffffffffffffffffffffffffffffffffffffff1681526020019081526020016000205461092691906123c0565b6111a1565b6001905092915050565b600080600560009054906101000a900473ffffffffffffffffffffffffffffffffffffffff1673ffffffffffffffffffffffffffffffffffffffff166370a08231306040518263ffffffff1660e01b81526004016109939190611ff7565b60206040518083038186803b1580156109ab57600080fd5b505afa1580156109bf573d6000803e3d6000fd5b505050506040513d601f19601f820116820180604052508101906109e39190611ba7565b9050600a816109f29190612416565b91505090565b6000610a0333610be0565b11610a43576040517f08c379a0000000000000000000000000000000000000000000000000000000008152600401610a3a9061230e565b60405180910390fd5b6000600560009054906101000a900473ffffffffffffffffffffffffffffffffffffffff1673ffffffffffffffffffffffffffffffffffffffff166370a08231306040518263ffffffff1660e01b8152600401610aa09190611ff7565b60206040518083038186803b158015610ab857600080fd5b505afa158015610acc573d6000803e3d6000fd5b505050506040513d601f19601f82011682018060405250810190610af09190611ba7565b90506000610afd33610be0565b90506000610b096104ac565b8383610b159190612447565b610b1f9190612416565b9050610b2b338361173f565b600560009054906101000a900473ffffffffffffffffffffffffffffffffffffffff1673ffffffffffffffffffffffffffffffffffffffff1663a9059cbb33836040518363ffffffff1660e01b8152600401610b889291906120b8565b602060405180830381600087803b158015610ba257600080fd5b505af1158015610bb6573d6000803e3d6000fd5b505050506040513d601f19601f82011682018060405250810190610bda9190611b7e565b50505050565b60008060008373ffffffffffffffffffffffffffffffffffffffff1673ffffffffffffffffffffffffffffffffffffffff168152602001908152602001600020549050919050565b600560009054906101000a900473ffffffffffffffffffffffffffffffffffffffff1673ffffffffffffffffffffffffffffffffffffffff1663d505accf333088888888886040518863ffffffff1660e01b8152600401610c8f9796959493929190612049565b600060405180830381600087803b158015610ca957600080fd5b505af1158015610cbd573d6000803e3d6000fd5b50505050600560009054906101000a900473ffffffffffffffffffffffffffffffffffffffff1673ffffffffffffffffffffffffffffffffffffffff166323b872dd3330886040518463ffffffff1660e01b8152600401610d2093929190612012565b602060405180830381600087803b158015610d3a57600080fd5b505af1158015610d4e573d6000803e3d6000fd5b505050506040513d601f19601f82011682018060405250810190610d729190611b7e565b50610d7b610935565b851115610dbd576040517f08c379a0000000000000000000000000000000000000000000000000000000008152600401610db4906122ce565b60405180910390fd5b60006025610dc9611913565b610dd391906125eb565b9050600081148015610de55750600287145b80610dfb575086600282610df991906125eb565b145b15610eff57600560009054906101000a900473ffffffffffffffffffffffffffffffffffffffff1673ffffffffffffffffffffffffffffffffffffffff1663a9059cbb33600289610e4c9190612447565b6040518363ffffffff1660e01b8152600401610e699291906120b8565b602060405180830381600087803b158015610e8357600080fd5b505af1158015610e97573d6000803e3d6000fd5b505050506040513d601f19601f82011682018060405250810190610ebb9190611b7e565b507fa8c0f93e325cba2e605e8db9257de433fc020fbd68e246fb1dbbf6ef7ac15ea633348984604051610ef19493929190612276565b60405180910390a150610f3e565b7fa8c0f93e325cba2e605e8db9257de433fc020fbd68e246fb1dbbf6ef7ac15ea633348984604051610f34949392919061219e565b60405180910390a1505b505050505050565b606060048054610f5590612579565b80601f0160208091040260200160405190810160405280929190818152602001828054610f8190612579565b8015610fce5780601f10610fa357610100808354040283529160200191610fce565b820191906000526020600020905b815481529060010190602001808311610fb157829003601f168201915b5050505050905090565b565b60008060016000610fe9611199565b73ffffffffffffffffffffffffffffffffffffffff1673ffffffffffffffffffffffffffffffffffffffff16815260200190815260200160002060008573ffffffffffffffffffffffffffffffffffffffff1673ffffffffffffffffffffffffffffffffffffffff168152602001908152602001600020549050828110156110a6576040517f08c379a000000000000000000000000000000000000000000000000000000000815260040161109d9061232e565b60405180910390fd5b6110c36110b1611199565b8585846110be91906124a1565b6111a1565b600191505092915050565b60006110e26110db611199565b848461136c565b6001905092915050565b6000600160008473ffffffffffffffffffffffffffffffffffffffff1673ffffffffffffffffffffffffffffffffffffffff16815260200190815260200160002060008373ffffffffffffffffffffffffffffffffffffffff1673ffffffffffffffffffffffffffffffffffffffff16815260200190815260200160002054905092915050565b600560009054906101000a900473ffffffffffffffffffffffffffffffffffffffff1681565b600033905090565b600073ffffffffffffffffffffffffffffffffffffffff168373ffffffffffffffffffffffffffffffffffffffff161415611211576040517f08c379a0000000000000000000000000000000000000000000000000000000008152600401611208906122ee565b60405180910390fd5b600073ffffffffffffffffffffffffffffffffffffffff168273ffffffffffffffffffffffffffffffffffffffff161415611281576040517f08c379a00000000000000000000000000000000000000000000000000000000081526004016112789061217e565b60405180910390fd5b80600160008573ffffffffffffffffffffffffffffffffffffffff1673ffffffffffffffffffffffffffffffffffffffff16815260200190815260200160002060008473ffffffffffffffffffffffffffffffffffffffff1673ffffffffffffffffffffffffffffffffffffffff168152602001908152602001600020819055508173ffffffffffffffffffffffffffffffffffffffff168373ffffffffffffffffffffffffffffffffffffffff167f8c5be1e5ebec7d5bd14f71427d1e84f3dd0314c0f7b2291e5b200ac8c7c3b9258360405161135f919061236e565b60405180910390a3505050565b600073ffffffffffffffffffffffffffffffffffffffff168373ffffffffffffffffffffffffffffffffffffffff1614156113dc576040517f08c379a00000000000000000000000000000000000000000000000000000000081526004016113d390612256565b60405180910390fd5b600073ffffffffffffffffffffffffffffffffffffffff168273ffffffffffffffffffffffffffffffffffffffff16141561144c576040517f08c379a00000000000000000000000000000000000000000000000000000000081526004016114439061211e565b60405180910390fd5b611457838383611a0b565b60008060008573ffffffffffffffffffffffffffffffffffffffff1673ffffffffffffffffffffffffffffffffffffffff168152602001908152602001600020549050818110156114dd576040517f08c379a00000000000000000000000000000000000000000000000000000000081526004016114d4906121f6565b60405180910390fd5b81816114e991906124a1565b6000808673ffffffffffffffffffffffffffffffffffffffff1673ffffffffffffffffffffffffffffffffffffffff16815260200190815260200160002081905550816000808573ffffffffffffffffffffffffffffffffffffffff1673ffffffffffffffffffffffffffffffffffffffff168152602001908152602001600020600082825461157991906123c0565b925050819055508273ffffffffffffffffffffffffffffffffffffffff168473ffffffffffffffffffffffffffffffffffffffff167fddf252ad1be2c89b69c2b068fc378daa952ba7f163c4a11628f55a4df523b3ef846040516115dd919061236e565b60405180910390a350505050565b600073ffffffffffffffffffffffffffffffffffffffff168273ffffffffffffffffffffffffffffffffffffffff16141561165b576040517f08c379a00000000000000000000000000000000000000000000000000000000081526004016116529061234e565b60405180910390fd5b61166760008383611a0b565b806002600082825461167991906123c0565b92505081905550806000808473ffffffffffffffffffffffffffffffffffffffff1673ffffffffffffffffffffffffffffffffffffffff16815260200190815260200160002060008282546116ce91906123c0565b925050819055508173ffffffffffffffffffffffffffffffffffffffff16600073ffffffffffffffffffffffffffffffffffffffff167fddf252ad1be2c89b69c2b068fc378daa952ba7f163c4a11628f55a4df523b3ef83604051611733919061236e565b60405180910390a35050565b600073ffffffffffffffffffffffffffffffffffffffff168273ffffffffffffffffffffffffffffffffffffffff1614156117af576040517f08c379a00000000000000000000000000000000000000000000000000000000081526004016117a690612236565b60405180910390fd5b6117bb82600083611a0b565b60008060008473ffffffffffffffffffffffffffffffffffffffff1673ffffffffffffffffffffffffffffffffffffffff16815260200190815260200160002054905081811015611841576040517f08c379a00000000000000000000000000000000000000000000000000000000081526004016118389061215e565b60405180910390fd5b818161184d91906124a1565b6000808573ffffffffffffffffffffffffffffffffffffffff1673ffffffffffffffffffffffffffffffffffffffff1681526020019081526020016000208190555081600260008282546118a191906124a1565b92505081905550600073ffffffffffffffffffffffffffffffffffffffff168373ffffffffffffffffffffffffffffffffffffffff167fddf252ad1be2c89b69c2b068fc378daa952ba7f163c4a11628f55a4df523b3ef84604051611906919061236e565b60405180910390a3505050565b6000804342336040516020016119299190611fa6565b6040516020818303038152906040528051906020012060001c61194c9190612416565b45424160405160200161195f9190611fc1565b6040516020818303038152906040528051906020012060001c6119829190612416565b444261198e91906123c0565b61199891906123c0565b6119a291906123c0565b6119ac91906123c0565b6119b691906123c0565b6040516020016119c69190611fdc565b6040516020818303038152906040528051906020012060001c90506103e880826119f09190612416565b6119fa9190612447565b81611a0591906124a1565b91505090565b505050565b600081359050611a1f81612a84565b92915050565b600081519050611a3481612a9b565b92915050565b600081359050611a4981612ab2565b92915050565b600081359050611a5e81612ac9565b92915050565b600081519050611a7381612ac9565b92915050565b600081359050611a8881612ae0565b92915050565b600060208284031215611aa057600080fd5b6000611aae84828501611a10565b91505092915050565b60008060408385031215611aca57600080fd5b6000611ad885828601611a10565b9250506020611ae985828601611a10565b9150509250929050565b600080600060608486031215611b0857600080fd5b6000611b1686828701611a10565b9350506020611b2786828701611a10565b9250506040611b3886828701611a4f565b9150509250925092565b60008060408385031215611b5557600080fd5b6000611b6385828601611a10565b9250506020611b7485828601611a4f565b9150509250929050565b600060208284031215611b9057600080fd5b6000611b9e84828501611a25565b91505092915050565b600060208284031215611bb957600080fd5b6000611bc784828501611a64565b91505092915050565b60008060008060008060c08789031215611be957600080fd5b6000611bf789828a01611a4f565b9650506020611c0889828a01611a4f565b9550506040611c1989828a01611a4f565b9450506060611c2a89828a01611a79565b9350506080611c3b89828a01611a3a565b92505060a0611c4c89828a01611a3a565b9150509295509295509295565b600080600080600060a08688031215611c7157600080fd5b6000611c7f88828901611a4f565b9550506020611c9088828901611a4f565b9450506040611ca188828901611a79565b9350506060611cb288828901611a3a565b9250506080611cc388828901611a3a565b9150509295509295909350565b611ce1611cdc826124e7565b6125bd565b82525050565b611cf0816124d5565b82525050565b611d07611d02826124d5565b6125ab565b82525050565b611d16816124f9565b82525050565b611d2581612505565b82525050565b6000611d36826123a4565b611d4081856123af565b9350611d50818560208601612546565b611d59816126a9565b840191505092915050565b6000611d716023836123af565b9150611d7c826126c7565b604082019050919050565b6000611d94601b836123af565b9150611d9f82612716565b602082019050919050565b6000611db76022836123af565b9150611dc28261273f565b604082019050919050565b6000611dda6022836123af565b9150611de58261278e565b604082019050919050565b6000611dfd6004836123af565b9150611e08826127dd565b602082019050919050565b6000611e206026836123af565b9150611e2b82612806565b604082019050919050565b6000611e436028836123af565b9150611e4e82612855565b604082019050919050565b6000611e666021836123af565b9150611e71826128a4565b604082019050919050565b6000611e896025836123af565b9150611e94826128f3565b604082019050919050565b6000611eac6003836123af565b9150611eb782612942565b602082019050919050565b6000611ecf6020836123af565b9150611eda8261296b565b602082019050919050565b6000611ef26024836123af565b9150611efd82612994565b604082019050919050565b6000611f156019836123af565b9150611f20826129e3565b602082019050919050565b6000611f386025836123af565b9150611f4382612a0c565b604082019050919050565b6000611f5b601f836123af565b9150611f6682612a5b565b602082019050919050565b611f7a8161252f565b82525050565b611f91611f8c8261252f565b6125e1565b82525050565b611fa081612539565b82525050565b6000611fb28284611cf6565b60148201915081905092915050565b6000611fcd8284611cd0565b60148201915081905092915050565b6000611fe88284611f80565b60208201915081905092915050565b600060208201905061200c6000830184611ce7565b92915050565b60006060820190506120276000830186611ce7565b6120346020830185611ce7565b6120416040830184611f71565b949350505050565b600060e08201905061205e600083018a611ce7565b61206b6020830189611ce7565b6120786040830188611f71565b6120856060830187611f71565b6120926080830186611f97565b61209f60a0830185611d1c565b6120ac60c0830184611d1c565b98975050505050505050565b60006040820190506120cd6000830185611ce7565b6120da6020830184611f71565b9392505050565b60006020820190506120f66000830184611d0d565b92915050565b600060208201905081810360008301526121168184611d2b565b905092915050565b6000602082019050818103600083015261213781611d64565b9050919050565b6000602082019050818103600083015261215781611d87565b9050919050565b6000602082019050818103600083015261217781611daa565b9050919050565b6000602082019050818103600083015261219781611dcd565b9050919050565b600060a08201905081810360008301526121b781611df0565b90506121c66020830187611ce7565b6121d36040830186611f71565b6121e06060830185611f71565b6121ed6080830184611f71565b95945050505050565b6000602082019050818103600083015261220f81611e13565b9050919050565b6000602082019050818103600083015261222f81611e36565b9050919050565b6000602082019050818103600083015261224f81611e59565b9050919050565b6000602082019050818103600083015261226f81611e7c565b9050919050565b600060a082019050818103600083015261228f81611e9f565b905061229e6020830187611ce7565b6122ab6040830186611f71565b6122b86060830185611f71565b6122c56080830184611f71565b95945050505050565b600060208201905081810360008301526122e781611ec2565b9050919050565b6000602082019050818103600083015261230781611ee5565b9050919050565b6000602082019050818103600083015261232781611f08565b9050919050565b6000602082019050818103600083015261234781611f2b565b9050919050565b6000602082019050818103600083015261236781611f4e565b9050919050565b60006020820190506123836000830184611f71565b92915050565b600060208201905061239e6000830184611f97565b92915050565b600081519050919050565b600082825260208201905092915050565b60006123cb8261252f565b91506123d68361252f565b9250827fffffffffffffffffffffffffffffffffffffffffffffffffffffffffffffffff0382111561240b5761240a61261c565b5b828201905092915050565b60006124218261252f565b915061242c8361252f565b92508261243c5761243b61264b565b5b828204905092915050565b60006124528261252f565b915061245d8361252f565b9250817fffffffffffffffffffffffffffffffffffffffffffffffffffffffffffffffff04831182151516156124965761249561261c565b5b828202905092915050565b60006124ac8261252f565b91506124b78361252f565b9250828210156124ca576124c961261c565b5b828203905092915050565b60006124e08261250f565b9050919050565b60006124f28261250f565b9050919050565b60008115159050919050565b6000819050919050565b600073ffffffffffffffffffffffffffffffffffffffff82169050919050565b6000819050919050565b600060ff82169050919050565b60005b83811015612564578082015181840152602081019050612549565b83811115612573576000848401525b50505050565b6000600282049050600182168061259157607f821691505b602082108114156125a5576125a461267a565b5b50919050565b60006125b6826125cf565b9050919050565b60006125c8826125cf565b9050919050565b60006125da826126ba565b9050919050565b6000819050919050565b60006125f68261252f565b91506126018361252f565b9250826126115761261061264b565b5b828206905092915050565b7f4e487b7100000000000000000000000000000000000000000000000000000000600052601160045260246000fd5b7f4e487b7100000000000000000000000000000000000000000000000000000000600052601260045260246000fd5b7f4e487b7100000000000000000000000000000000000000000000000000000000600052602260045260246000fd5b6000601f19601f8301169050919050565b60008160601b9050919050565b7f45524332303a207472616e7366657220746f20746865207a65726f206164647260008201527f6573730000000000000000000000000000000000000000000000000000000000602082015250565b7f596f75206469646e27742073656e6420616e792062616c616e63650000000000600082015250565b7f45524332303a206275726e20616d6f756e7420657863656564732062616c616e60008201527f6365000000000000000000000000000000000000000000000000000000000000602082015250565b7f45524332303a20617070726f766520746f20746865207a65726f20616464726560008201527f7373000000000000000000000000000000000000000000000000000000000000602082015250565b7f4c4f534500000000000000000000000000000000000000000000000000000000600082015250565b7f45524332303a207472616e7366657220616d6f756e742065786365656473206260008201527f616c616e63650000000000000000000000000000000000000000000000000000602082015250565b7f45524332303a207472616e7366657220616d6f756e742065786365656473206160008201527f6c6c6f77616e6365000000000000000000000000000000000000000000000000602082015250565b7f45524332303a206275726e2066726f6d20746865207a65726f2061646472657360008201527f7300000000000000000000000000000000000000000000000000000000000000602082015250565b7f45524332303a207472616e736665722066726f6d20746865207a65726f20616460008201527f6472657373000000000000000000000000000000000000000000000000000000602082015250565b7f57494e0000000000000000000000000000000000000000000000000000000000600082015250565b7f596f757220626574206578636565647320746865206d617820616c6c6f776564600082015250565b7f45524332303a20617070726f76652066726f6d20746865207a65726f2061646460008201527f7265737300000000000000000000000000000000000000000000000000000000602082015250565b7f596f757220646f6e27742068617665206c697175696469747900000000000000600082015250565b7f45524332303a2064656372656173656420616c6c6f77616e63652062656c6f7760008201527f207a65726f000000000000000000000000000000000000000000000000000000602082015250565b7f45524332303a206d696e7420746f20746865207a65726f206164647265737300600082015250565b612a8d816124d5565b8114612a9857600080fd5b50565b612aa4816124f9565b8114612aaf57600080fd5b50565b612abb81612505565b8114612ac657600080fd5b50565b612ad28161252f565b8114612add57600080fd5b50565b612ae981612539565b8114612af457600080fd5b5056fea26469706673582212202b5e6ff9c6e825fc5a35ecb41c2756da001d31b074d5ca9fe09113485130206964736f6c63430008020033",
  "immutableReferences": {},
  "source": "// SPDX-License-Identifier: GPL-3.0\n\npragma solidity ^0.8.0;\n\nimport \"@openzeppelin/contracts/token/ERC20/ERC20.sol\";\nimport \"@openzeppelin/contracts/token/ERC20/IERC20.sol\";\nimport \"@openzeppelin/contracts/token/ERC20/extensions/draft-IERC20Permit.sol\";\n\ncontract Roulette is ERC20 {\n    address public bet_token;\n\n    event Bet(string, address, uint, uint, uint256);\n    \n    constructor(address _bet_token) public ERC20(\"SAKURA_V1\", \"SV1\") {\n        _mint(msg.sender, 0);\n        bet_token = _bet_token;\n    }\n    \n    function receive() public payable {}\n    \n    function addLiquidity(uint256 amount, uint deadline, uint8 v, bytes32 r, bytes32 s) public payable {\n        IERC20Permit(bet_token).permit(msg.sender, address(this), amount, deadline, v, r, s);\n        IERC20(bet_token).transferFrom(msg.sender, address(this), amount);\n        require(amount > 0, \"You didn't send any balance\");\n        uint256 lx = amount;\n        uint256 l = IERC20(bet_token).balanceOf(address(this)) - lx;\n        if (l <= 0) {\n          uint256 base_shares = 10**36;\n          _mint(msg.sender, base_shares * lx);\n          return;\n        }\n        uint256 d = totalSupply();\n        uint256 p = lx*d;\n        uint256 dx = p / l;\n        \n        _mint(msg.sender, dx);\n    }\n    \n    function removeLiquidity() public payable {\n        require(balanceOf(msg.sender) > 0, \"Your don't have liquidity\");\n        uint256 current_funds = IERC20(bet_token).balanceOf(address(this));\n        uint256 sender_balance = balanceOf(msg.sender);\n        uint256 sender_liquidity = (sender_balance * current_funds) / totalSupply();\n        _burn(msg.sender, sender_balance);\n        IERC20(bet_token).transfer(msg.sender, sender_liquidity);\n    }\n    \n    // 0: black\n    // 1: red\n    // 2: green\n    function betColor(uint color, uint256 amount, uint deadline, uint8 v, bytes32 r, bytes32 s) public payable {\n        IERC20Permit(bet_token).permit(msg.sender, address(this), amount, deadline, v, r, s);\n        IERC20(bet_token).transferFrom(msg.sender, address(this), amount);\n        require(amount <= getMaxBet(), \"Your bet exceeds the max allowed\");\n        uint256 randomNumber = random() % 37;\n        if ((randomNumber == 0 && color == 2) || (randomNumber % 2 == color)) {\n            IERC20(bet_token).transfer(msg.sender, amount * 2);\n            emit Bet(\"WIN\", address(msg.sender), msg.value, color, randomNumber);\n            return;\n        }\n        emit Bet(\"LOSE\", address(msg.sender), msg.value, color, randomNumber);\n    }\n    \n    function getMaxBet() public view returns(uint) {\n        uint256 current_balance = IERC20(bet_token).balanceOf(address(this));\n        return current_balance / 10;\n    }\n\n    // Temp random, replace with Chainlink VRF\n    function random() private view returns(uint256) {\n        uint256 seed = uint256(keccak256(abi.encodePacked(\n            block.timestamp + block.difficulty +\n            ((uint256(keccak256(abi.encodePacked(block.coinbase)))) / (block.timestamp)) +\n            block.gaslimit + \n            ((uint256(keccak256(abi.encodePacked(msg.sender)))) / (block.timestamp)) +\n            block.number\n        )));\n        \n        return (seed - ((seed / 1000) * 1000));\n    }\n}\n",
  "sourcePath": "/Users/ivan/work/crypto/roulette/contracts/Roulette.sol",
  "compiler": {
    "name": "solc",
    "version": "0.8.2+commit.661d1103.Emscripten.clang"
  },
  "schemaVersion": "3.3.4",
  "updatedAt": "2021-03-20T06:01:42.471Z",
  "networkType": "ethereum",
  "devdoc": {
    "kind": "dev",
    "methods": {
      "allowance(address,address)": {
        "details": "See {IERC20-allowance}."
      },
      "approve(address,uint256)": {
        "details": "See {IERC20-approve}. Requirements: - `spender` cannot be the zero address."
      },
      "balanceOf(address)": {
        "details": "See {IERC20-balanceOf}."
      },
      "decimals()": {
        "details": "Returns the number of decimals used to get its user representation. For example, if `decimals` equals `2`, a balance of `505` tokens should be displayed to a user as `5,05` (`505 / 10 ** 2`). Tokens usually opt for a value of 18, imitating the relationship between Ether and Wei. This is the value {ERC20} uses, unless this function is overloaded; NOTE: This information is only used for _display_ purposes: it in no way affects any of the arithmetic of the contract, including {IERC20-balanceOf} and {IERC20-transfer}."
      },
      "decreaseAllowance(address,uint256)": {
        "details": "Atomically decreases the allowance granted to `spender` by the caller. This is an alternative to {approve} that can be used as a mitigation for problems described in {IERC20-approve}. Emits an {Approval} event indicating the updated allowance. Requirements: - `spender` cannot be the zero address. - `spender` must have allowance for the caller of at least `subtractedValue`."
      },
      "increaseAllowance(address,uint256)": {
        "details": "Atomically increases the allowance granted to `spender` by the caller. This is an alternative to {approve} that can be used as a mitigation for problems described in {IERC20-approve}. Emits an {Approval} event indicating the updated allowance. Requirements: - `spender` cannot be the zero address."
      },
      "name()": {
        "details": "Returns the name of the token."
      },
      "symbol()": {
        "details": "Returns the symbol of the token, usually a shorter version of the name."
      },
      "totalSupply()": {
        "details": "See {IERC20-totalSupply}."
      },
      "transfer(address,uint256)": {
        "details": "See {IERC20-transfer}. Requirements: - `recipient` cannot be the zero address. - the caller must have a balance of at least `amount`."
      },
      "transferFrom(address,address,uint256)": {
        "details": "See {IERC20-transferFrom}. Emits an {Approval} event indicating the updated allowance. This is not required by the EIP. See the note at the beginning of {ERC20}. Requirements: - `sender` and `recipient` cannot be the zero address. - `sender` must have a balance of at least `amount`. - the caller must have allowance for ``sender``'s tokens of at least `amount`."
      }
    },
    "version": 1
  },
  "userdoc": {
    "kind": "user",
    "methods": {},
    "version": 1
  }
}