{
  "contractName": "Roulette",
  "abi": [
    {
      "anonymous": false,
      "inputs": [
        {
          "indexed": false,
          "internalType": "string",
          "name": "",
          "type": "string"
        },
        {
          "indexed": false,
          "internalType": "address",
          "name": "",
          "type": "address"
        },
        {
          "indexed": false,
          "internalType": "uint256",
          "name": "",
          "type": "uint256"
        },
        {
          "indexed": false,
          "internalType": "uint256",
          "name": "",
          "type": "uint256"
        },
        {
          "indexed": false,
          "internalType": "uint256",
          "name": "",
          "type": "uint256"
        }
      ],
      "name": "Bet",
      "type": "event"
    },
    {
      "constant": true,
      "inputs": [],
      "name": "current_shares",
      "outputs": [
        {
          "internalType": "uint256",
          "name": "",
          "type": "uint256"
        }
      ],
      "payable": false,
      "stateMutability": "view",
      "type": "function"
    },
    {
      "constant": true,
      "inputs": [
        {
          "internalType": "address",
          "name": "",
          "type": "address"
        }
      ],
      "name": "shares_of",
      "outputs": [
        {
          "internalType": "uint256",
          "name": "",
          "type": "uint256"
        }
      ],
      "payable": false,
      "stateMutability": "view",
      "type": "function"
    },
    {
      "constant": false,
      "inputs": [],
      "name": "receive",
      "outputs": [],
      "payable": true,
      "stateMutability": "payable",
      "type": "function"
    },
    {
      "constant": false,
      "inputs": [],
      "name": "addLiquidity",
      "outputs": [],
      "payable": true,
      "stateMutability": "payable",
      "type": "function"
    },
    {
      "constant": false,
      "inputs": [],
      "name": "removeLiquidity",
      "outputs": [],
      "payable": true,
      "stateMutability": "payable",
      "type": "function"
    },
    {
      "constant": false,
      "inputs": [
        {
          "internalType": "uint256",
          "name": "color",
          "type": "uint256"
        }
      ],
      "name": "betColor",
      "outputs": [],
      "payable": true,
      "stateMutability": "payable",
      "type": "function"
    },
    {
      "constant": true,
      "inputs": [],
      "name": "getMaxBet",
      "outputs": [
        {
          "internalType": "uint256",
          "name": "",
          "type": "uint256"
        }
      ],
      "payable": false,
      "stateMutability": "view",
      "type": "function"
    },
    {
      "constant": true,
      "inputs": [],
      "name": "getCurrentShares",
      "outputs": [
        {
          "internalType": "uint256",
          "name": "",
          "type": "uint256"
        }
      ],
      "payable": false,
      "stateMutability": "view",
      "type": "function"
    },
    {
      "constant": true,
      "inputs": [
        {
          "internalType": "address",
          "name": "_address",
          "type": "address"
        }
      ],
      "name": "getSharesOf",
      "outputs": [
        {
          "internalType": "uint256",
          "name": "",
          "type": "uint256"
        }
      ],
      "payable": false,
      "stateMutability": "view",
      "type": "function"
    }
  ],
  "bytecode": "0x608060405234801561001057600080fd5b5061098c806100206000396000f3fe6080604052600436106100865760003560e01c80638948261d116100595780638948261d14610119578063a3e76c0f14610144578063b4c670321461014e578063e8078d94146101b3578063ee85348e146101bd57610086565b80630f636bd31461008b578063646668b6146100b657806367b9a286146100e15780637b3cb07c146100eb575b600080fd5b34801561009757600080fd5b506100a0610222565b6040518082815260200191505060405180910390f35b3480156100c257600080fd5b506100cb610228565b6040518082815260200191505060405180910390f35b6100e961023f565b005b6101176004803603602081101561010157600080fd5b81019080803590602001909291905050506103ed565b005b34801561012557600080fd5b5061012e610666565b6040518082815260200191505060405180910390f35b61014c610670565b005b34801561015a57600080fd5b5061019d6004803603602081101561017157600080fd5b81019080803573ffffffffffffffffffffffffffffffffffffffff169060200190929190505050610672565b6040518082815260200191505060405180910390f35b6101bb61068a565b005b3480156101c957600080fd5b5061020c600480360360208110156101e057600080fd5b81019080803573ffffffffffffffffffffffffffffffffffffffff1690602001909291905050506107fe565b6040518082815260200191505060405180910390f35b60015481565b600080479050600a818161023857fe5b0491505090565b60008060003373ffffffffffffffffffffffffffffffffffffffff1673ffffffffffffffffffffffffffffffffffffffff16815260200190815260200160002054116102f3576040517f08c379a00000000000000000000000000000000000000000000000000000000081526004018080602001828103825260198152602001807f596f757220646f6e27742068617665206c69717569646974790000000000000081525060200191505060405180910390fd5b600047905060008060003373ffffffffffffffffffffffffffffffffffffffff1673ffffffffffffffffffffffffffffffffffffffff16815260200190815260200160002054905060006001548383028161034a57fe5b0490503373ffffffffffffffffffffffffffffffffffffffff166108fc829081150290604051600060405180830381858888f19350505050158015610393573d6000803e3d6000fd5b508160016000828254039250508190555060008060003373ffffffffffffffffffffffffffffffffffffffff1673ffffffffffffffffffffffffffffffffffffffff16815260200190815260200160002081905550505050565b6103f5610228565b34111561046a576040517f08c379a00000000000000000000000000000000000000000000000000000000081526004018080602001828103825260208152602001807f596f757220626574206578636565647320746865206d617820616c6c6f77656481525060200191505060405180910390fd5b60006025610476610846565b8161047d57fe5b0690506000811480156104905750600282145b806104a4575081600282816104a157fe5b06145b156105ad573373ffffffffffffffffffffffffffffffffffffffff166108fc600234029081150290604051600060405180830381858888f193505050501580156104f2573d6000803e3d6000fd5b507fa8c0f93e325cba2e605e8db9257de433fc020fbd68e246fb1dbbf6ef7ac15ea63334848460405180806020018673ffffffffffffffffffffffffffffffffffffffff1673ffffffffffffffffffffffffffffffffffffffff168152602001858152602001848152602001838152602001828103825260038152602001807f57494e00000000000000000000000000000000000000000000000000000000008152506020019550505050505060405180910390a150610663565b7fa8c0f93e325cba2e605e8db9257de433fc020fbd68e246fb1dbbf6ef7ac15ea63334848460405180806020018673ffffffffffffffffffffffffffffffffffffffff1673ffffffffffffffffffffffffffffffffffffffff168152602001858152602001848152602001838152602001828103825260048152602001807f4c4f5345000000000000000000000000000000000000000000000000000000008152506020019550505050505060405180910390a1505b50565b6000600154905090565b565b60006020528060005260406000206000915090505481565b60003411610700576040517f08c379a000000000000000000000000000000000000000000000000000000000815260040180806020018281038252601a8152602001807f596f7572206469646e27742073656e6420612062616c616e636500000000000081525060200191505060405180910390fd5b6000349050600081470390506000811161077e5760006ec097ce7bc90715b34b9f100000000090508281026001819055508281026000803373ffffffffffffffffffffffffffffffffffffffff1673ffffffffffffffffffffffffffffffffffffffff168152602001908152602001600020819055505050506107fc565b6000600154905060008184029050600083828161079757fe5b049050806000803373ffffffffffffffffffffffffffffffffffffffff1673ffffffffffffffffffffffffffffffffffffffff168152602001908152602001600020600082825401925050819055508060016000828254019250508190555050505050505b565b60008060008373ffffffffffffffffffffffffffffffffffffffff1673ffffffffffffffffffffffffffffffffffffffff168152602001908152602001600020549050919050565b600080434233604051602001808273ffffffffffffffffffffffffffffffffffffffff1673ffffffffffffffffffffffffffffffffffffffff1660601b81526014019150506040516020818303038152906040528051906020012060001c816108ab57fe5b04454241604051602001808273ffffffffffffffffffffffffffffffffffffffff1673ffffffffffffffffffffffffffffffffffffffff1660601b81526014019150506040516020818303038152906040528051906020012060001c8161090e57fe5b0444420101010101604051602001808281526020019150506040516020818303038152906040528051906020012060001c90506103e880828161094d57fe5b040281039150509056fea265627a7a72315820b955387d3ac1c1d4703fdc50b36be5f792eabff28b411e7cf7b55b651020128164736f6c63430005100032",
  "source": "// SPDX-License-Identifier: MIT\npragma solidity ^0.5.16;\n\ncontract Roulette {\n\n  mapping (address => uint256) public shares_of;\n  uint256 public current_shares;\n  \n  event Bet(string, address, uint, uint, uint256);\n  \n  function receive() public payable {}\n\n  function addLiquidity() public payable {\n    require(msg.value > 0, \"Your didn't send a balance\");\n    uint256 lx = msg.value;\n    uint256 l = address(this).balance - lx;\n    if (l <= 0) {\n      uint256 base_shares = 10**36;\n      current_shares = base_shares * lx;\n      shares_of[msg.sender] = base_shares * lx;\n      return;\n    }\n    uint256 d = current_shares;\n    uint256 p = lx*d;\n    uint256 dx = p / l;\n\n    shares_of[msg.sender] += dx;\n    current_shares += dx;\n  }\n\n  function removeLiquidity() public payable {\n    require(shares_of[msg.sender] > 0, \"Your don't have liquidity\");\n    uint256 current_balance = address(this).balance;\n    uint256 senderShares = shares_of[msg.sender];\n    uint256 senderLiquidity = (senderShares * current_balance) / current_shares;\n    msg.sender.transfer(senderLiquidity);\n    current_shares -= senderShares;\n    shares_of[msg.sender] = 0;\n  }\n\n  // 0: black\n  // 1: red\n  // 2: green\n  function betColor(uint color) public payable {\n    require(msg.value <= getMaxBet(), \"Your bet exceeds the max allowed\");\n    uint256 randomNumber = random() % 37;\n    if ((randomNumber == 0 && color == 2) || (randomNumber % 2 == color)) {\n      msg.sender.transfer(msg.value * 2);\n      emit Bet(\"WIN\", address(msg.sender), msg.value, color, randomNumber);\n      return;\n    }\n    emit Bet(\"LOSE\", address(msg.sender), msg.value, color, randomNumber);\n  }\n\n  function getMaxBet() public view returns(uint) {\n    uint256 currentBalance = address(this).balance;\n    return currentBalance / 10;\n  }\n\n  function getCurrentShares() public view returns(uint) {\n    return current_shares;\n  }\n\n  function getSharesOf(address _address) public view returns(uint) {\n    return shares_of[_address];\n  }\n\n  // Temp random, replace with Chainlink VRF\n  function random() private view returns(uint256) {\n    uint256 seed = uint256(keccak256(abi.encodePacked(\n        block.timestamp + block.difficulty +\n        ((uint256(keccak256(abi.encodePacked(block.coinbase)))) / (now)) +\n        block.gaslimit + \n        ((uint256(keccak256(abi.encodePacked(msg.sender)))) / (now)) +\n        block.number\n    )));\n\n    return (seed - ((seed / 1000) * 1000));\n    }\n}\n",
  "sourcePath": "/home/ivan/work/crypto/roulette/contracts/Roulette.sol",
  "compiler": {
    "name": "solc",
    "version": "0.5.16+commit.9c3226ce.Emscripten.clang"
  },
  "schemaVersion": "3.3.3",
  "updatedAt": "2021-01-26T03:56:16.473Z",
  "networkType": "ethereum",
  "devdoc": {
    "methods": {}
  },
  "userdoc": {
    "methods": {}
  }
}